{
  "contractName": "DiagnosticRegistration",
  "abi": [
    {
      "anonymous": false,
      "inputs": [
        {
          "indexed": false,
          "internalType": "string",
          "name": "hhNumber",
          "type": "string"
        },
        {
          "indexed": false,
          "internalType": "string",
          "name": "diagnosticName",
          "type": "string"
        },
        {
          "indexed": false,
          "internalType": "address",
          "name": "walletAddress",
          "type": "address"
        }
      ],
      "name": "DiagnosticRegistered",
      "type": "event"
    },
    {
      "inputs": [
        {
          "internalType": "string",
          "name": "_diagnosticName",
          "type": "string"
        },
        {
          "internalType": "string",
          "name": "_hospitalName",
          "type": "string"
        },
        {
          "internalType": "string",
          "name": "_diagnosticLocation",
          "type": "string"
        },
        {
          "internalType": "string",
          "name": "_email",
          "type": "string"
        },
        {
          "internalType": "string",
          "name": "_hhNumber",
          "type": "string"
        },
        {
          "internalType": "string",
          "name": "_password",
          "type": "string"
        }
      ],
      "name": "registerDiagnostic",
      "outputs": [],
      "stateMutability": "nonpayable",
      "type": "function"
    },
    {
      "inputs": [
        {
          "internalType": "string",
          "name": "_hhNumber",
          "type": "string"
        }
      ],
      "name": "isRegisteredDiagnostic",
      "outputs": [
        {
          "internalType": "bool",
          "name": "",
          "type": "bool"
        }
      ],
      "stateMutability": "view",
      "type": "function",
      "constant": true
    },
    {
      "inputs": [
        {
          "internalType": "string",
          "name": "_hhNumber",
          "type": "string"
        }
      ],
      "name": "getDiagnosticDetails",
      "outputs": [
        {
          "internalType": "address",
          "name": "_walletAddress",
          "type": "address"
        },
        {
          "internalType": "string",
          "name": "_diagnosticName",
          "type": "string"
        },
        {
          "internalType": "string",
          "name": "_hospitalName",
          "type": "string"
        },
        {
          "internalType": "string",
          "name": "_diagnosticLocation",
          "type": "string"
        },
        {
          "internalType": "string",
          "name": "_email",
          "type": "string"
        }
      ],
      "stateMutability": "view",
      "type": "function",
      "constant": true
    },
    {
      "inputs": [],
      "name": "getDiagnosticList",
      "outputs": [
        {
          "components": [
            {
              "internalType": "address",
              "name": "walletAddress",
              "type": "address"
            },
            {
              "internalType": "string",
              "name": "diagnosticName",
              "type": "string"
            },
            {
              "internalType": "string",
              "name": "hospitalName",
              "type": "string"
            },
            {
              "internalType": "string",
              "name": "diagnosticLocation",
              "type": "string"
            },
            {
              "internalType": "string",
              "name": "email",
              "type": "string"
            },
            {
              "internalType": "string",
              "name": "hhNumber",
              "type": "string"
            },
            {
              "internalType": "string",
              "name": "password",
              "type": "string"
            }
          ],
          "internalType": "struct DiagnosticRegistration.Diagnostic[]",
          "name": "",
          "type": "tuple[]"
        }
      ],
      "stateMutability": "view",
      "type": "function",
      "constant": true
    },
    {
      "inputs": [
        {
          "internalType": "string",
          "name": "_hhNumber",
          "type": "string"
        },
        {
          "internalType": "string",
          "name": "_password",
          "type": "string"
        }
      ],
      "name": "validatePassword",
      "outputs": [
        {
          "internalType": "bool",
          "name": "",
          "type": "bool"
        }
      ],
      "stateMutability": "view",
      "type": "function",
      "constant": true
    }
  ],
  "bytecode": "0x608060405234801561001057600080fd5b50611bd6806100206000396000f3fe608060405234801561001057600080fd5b50600436106100575760003560e01c80631462b5a81461005c57806325b4c9c7146100785780637babdb26146100ac57806383abba7c146100dc578063cf9ff022146100fa575b600080fd5b610076600480360381019061007191906110b1565b61012a565b005b610092600480360381019061008d91906111e6565b6103e7565b6040516100a39594939291906112ef565b60405180910390f35b6100c660048036038101906100c1919061135e565b6108b8565b6040516100d391906113f1565b60405180910390f35b6100e46109dd565b6040516100f191906115e6565b60405180910390f35b610114600480360381019061010f91906111e6565b610e8d565b60405161012191906113f1565b60405180910390f35b600073ffffffffffffffffffffffffffffffffffffffff166000836040516101529190611644565b908152602001604051809103902060009054906101000a900473ffffffffffffffffffffffffffffffffffffffff1673ffffffffffffffffffffffffffffffffffffffff16146101d7576040517f08c379a00000000000000000000000000000000000000000000000000000000081526004016101ce906116a7565b60405180910390fd5b60006040518060e001604052803373ffffffffffffffffffffffffffffffffffffffff168152602001888152602001878152602001868152602001858152602001848152602001838152509050806001846040516102359190611644565b908152602001604051809103902060008201518160000160006101000a81548173ffffffffffffffffffffffffffffffffffffffff021916908373ffffffffffffffffffffffffffffffffffffffff160217905550602082015181600101908161029f91906118dd565b5060408201518160020190816102b591906118dd565b5060608201518160030190816102cb91906118dd565b5060808201518160040190816102e191906118dd565b5060a08201518160050190816102f791906118dd565b5060c082015181600601908161030d91906118dd565b50905050336000846040516103229190611644565b908152602001604051809103902060006101000a81548173ffffffffffffffffffffffffffffffffffffffff021916908373ffffffffffffffffffffffffffffffffffffffff1602179055506002839080600181540180825580915050600190039060005260206000200160009091909190915090816103a291906118dd565b507f018b729007b12778ed503e400556113a91191a1cd9f17a22387db8e25fa67d558388336040516103d6939291906119af565b60405180910390a150505050505050565b6000606080606080600073ffffffffffffffffffffffffffffffffffffffff166000876040516104179190611644565b908152602001604051809103902060009054906101000a900473ffffffffffffffffffffffffffffffffffffffff1673ffffffffffffffffffffffffffffffffffffffff160361049c576040517f08c379a000000000000000000000000000000000000000000000000000000000815260040161049390611a40565b60405180910390fd5b60006001876040516104ae9190611644565b90815260200160405180910390206040518060e00160405290816000820160009054906101000a900473ffffffffffffffffffffffffffffffffffffffff1673ffffffffffffffffffffffffffffffffffffffff1673ffffffffffffffffffffffffffffffffffffffff16815260200160018201805461052d906116f6565b80601f0160208091040260200160405190810160405280929190818152602001828054610559906116f6565b80156105a65780601f1061057b576101008083540402835291602001916105a6565b820191906000526020600020905b81548152906001019060200180831161058957829003601f168201915b505050505081526020016002820180546105bf906116f6565b80601f01602080910402602001604051908101604052809291908181526020018280546105eb906116f6565b80156106385780601f1061060d57610100808354040283529160200191610638565b820191906000526020600020905b81548152906001019060200180831161061b57829003601f168201915b50505050508152602001600382018054610651906116f6565b80601f016020809104026020016040519081016040528092919081815260200182805461067d906116f6565b80156106ca5780601f1061069f576101008083540402835291602001916106ca565b820191906000526020600020905b8154815290600101906020018083116106ad57829003601f168201915b505050505081526020016004820180546106e3906116f6565b80601f016020809104026020016040519081016040528092919081815260200182805461070f906116f6565b801561075c5780601f106107315761010080835404028352916020019161075c565b820191906000526020600020905b81548152906001019060200180831161073f57829003601f168201915b50505050508152602001600582018054610775906116f6565b80601f01602080910402602001604051908101604052809291908181526020018280546107a1906116f6565b80156107ee5780601f106107c3576101008083540402835291602001916107ee565b820191906000526020600020905b8154815290600101906020018083116107d157829003601f168201915b50505050508152602001600682018054610807906116f6565b80601f0160208091040260200160405190810160405280929190818152602001828054610833906116f6565b80156108805780601f1061085557610100808354040283529160200191610880565b820191906000526020600020905b81548152906001019060200180831161086357829003601f168201915b505050505081525050905080600001518160200151826040015183606001518460800151955095509550955095505091939590929450565b60008073ffffffffffffffffffffffffffffffffffffffff166000846040516108e19190611644565b908152602001604051809103902060009054906101000a900473ffffffffffffffffffffffffffffffffffffffff1673ffffffffffffffffffffffffffffffffffffffff1603610966576040517f08c379a000000000000000000000000000000000000000000000000000000000815260040161095d90611a40565b60405180910390fd5b6001836040516109769190611644565b90815260200160405180910390206006016040516020016109979190611ae3565b60405160208183030381529060405280519060200120826040516020016109be9190611644565b6040516020818303038152906040528051906020012014905092915050565b6060600060028054905067ffffffffffffffff811115610a00576109ff610f86565b5b604051908082528060200260200182016040528015610a3957816020015b610a26610f04565b815260200190600190039081610a1e5790505b50905060005b600280549050811015610e8557600160028281548110610a6257610a61611afa565b5b90600052602060002001604051610a799190611ae3565b90815260200160405180910390206040518060e00160405290816000820160009054906101000a900473ffffffffffffffffffffffffffffffffffffffff1673ffffffffffffffffffffffffffffffffffffffff1673ffffffffffffffffffffffffffffffffffffffff168152602001600182018054610af8906116f6565b80601f0160208091040260200160405190810160405280929190818152602001828054610b24906116f6565b8015610b715780601f10610b4657610100808354040283529160200191610b71565b820191906000526020600020905b815481529060010190602001808311610b5457829003601f168201915b50505050508152602001600282018054610b8a906116f6565b80601f0160208091040260200160405190810160405280929190818152602001828054610bb6906116f6565b8015610c035780601f10610bd857610100808354040283529160200191610c03565b820191906000526020600020905b815481529060010190602001808311610be657829003601f168201915b50505050508152602001600382018054610c1c906116f6565b80601f0160208091040260200160405190810160405280929190818152602001828054610c48906116f6565b8015610c955780601f10610c6a57610100808354040283529160200191610c95565b820191906000526020600020905b815481529060010190602001808311610c7857829003601f168201915b50505050508152602001600482018054610cae906116f6565b80601f0160208091040260200160405190810160405280929190818152602001828054610cda906116f6565b8015610d275780601f10610cfc57610100808354040283529160200191610d27565b820191906000526020600020905b815481529060010190602001808311610d0a57829003601f168201915b50505050508152602001600582018054610d40906116f6565b80601f0160208091040260200160405190810160405280929190818152602001828054610d6c906116f6565b8015610db95780601f10610d8e57610100808354040283529160200191610db9565b820191906000526020600020905b815481529060010190602001808311610d9c57829003601f168201915b50505050508152602001600682018054610dd2906116f6565b80601f0160208091040260200160405190810160405280929190818152602001828054610dfe906116f6565b8015610e4b5780601f10610e2057610100808354040283529160200191610e4b565b820191906000526020600020905b815481529060010190602001808311610e2e57829003601f168201915b505050505081525050828281518110610e6757610e66611afa565b5b60200260200101819052508080610e7d90611b58565b915050610a3f565b508091505090565b60008073ffffffffffffffffffffffffffffffffffffffff16600083604051610eb69190611644565b908152602001604051809103902060009054906101000a900473ffffffffffffffffffffffffffffffffffffffff1673ffffffffffffffffffffffffffffffffffffffff1614159050919050565b6040518060e00160405280600073ffffffffffffffffffffffffffffffffffffffff1681526020016060815260200160608152602001606081526020016060815260200160608152602001606081525090565b6000604051905090565b600080fd5b600080fd5b600080fd5b600080fd5b6000601f19601f8301169050919050565b7f4e487b7100000000000000000000000000000000000000000000000000000000600052604160045260246000fd5b610fbe82610f75565b810181811067ffffffffffffffff82111715610fdd57610fdc610f86565b5b80604052505050565b6000610ff0610f57565b9050610ffc8282610fb5565b919050565b600067ffffffffffffffff82111561101c5761101b610f86565b5b61102582610f75565b9050602081019050919050565b82818337600083830152505050565b600061105461104f84611001565b610fe6565b9050828152602081018484840111156110705761106f610f70565b5b61107b848285611032565b509392505050565b600082601f83011261109857611097610f6b565b5b81356110a8848260208601611041565b91505092915050565b60008060008060008060c087890312156110ce576110cd610f61565b5b600087013567ffffffffffffffff8111156110ec576110eb610f66565b5b6110f889828a01611083565b965050602087013567ffffffffffffffff81111561111957611118610f66565b5b61112589828a01611083565b955050604087013567ffffffffffffffff81111561114657611145610f66565b5b61115289828a01611083565b945050606087013567ffffffffffffffff81111561117357611172610f66565b5b61117f89828a01611083565b935050608087013567ffffffffffffffff8111156111a05761119f610f66565b5b6111ac89828a01611083565b92505060a087013567ffffffffffffffff8111156111cd576111cc610f66565b5b6111d989828a01611083565b9150509295509295509295565b6000602082840312156111fc576111fb610f61565b5b600082013567ffffffffffffffff81111561121a57611219610f66565b5b61122684828501611083565b91505092915050565b600073ffffffffffffffffffffffffffffffffffffffff82169050919050565b600061125a8261122f565b9050919050565b61126a8161124f565b82525050565b600081519050919050565b600082825260208201905092915050565b60005b838110156112aa57808201518184015260208101905061128f565b60008484015250505050565b60006112c182611270565b6112cb818561127b565b93506112db81856020860161128c565b6112e481610f75565b840191505092915050565b600060a0820190506113046000830188611261565b818103602083015261131681876112b6565b9050818103604083015261132a81866112b6565b9050818103606083015261133e81856112b6565b9050818103608083015261135281846112b6565b90509695505050505050565b6000806040838503121561137557611374610f61565b5b600083013567ffffffffffffffff81111561139357611392610f66565b5b61139f85828601611083565b925050602083013567ffffffffffffffff8111156113c0576113bf610f66565b5b6113cc85828601611083565b9150509250929050565b60008115159050919050565b6113eb816113d6565b82525050565b600060208201905061140660008301846113e2565b92915050565b600081519050919050565b600082825260208201905092915050565b6000819050602082019050919050565b6114418161124f565b82525050565b600082825260208201905092915050565b600061146382611270565b61146d8185611447565b935061147d81856020860161128c565b61148681610f75565b840191505092915050565b600060e0830160008301516114a96000860182611438565b50602083015184820360208601526114c18282611458565b915050604083015184820360408601526114db8282611458565b915050606083015184820360608601526114f58282611458565b9150506080830151848203608086015261150f8282611458565b91505060a083015184820360a08601526115298282611458565b91505060c083015184820360c08601526115438282611458565b9150508091505092915050565b600061155c8383611491565b905092915050565b6000602082019050919050565b600061157c8261140c565b6115868185611417565b93508360208202850161159885611428565b8060005b858110156115d457848403895281516115b58582611550565b94506115c083611564565b925060208a0199505060018101905061159c565b50829750879550505050505092915050565b600060208201905081810360008301526116008184611571565b905092915050565b600081905092915050565b600061161e82611270565b6116288185611608565b935061163881856020860161128c565b80840191505092915050565b60006116508284611613565b915081905092915050565b7f446961676e6f7374696320616c72656164792072656769737465726564000000600082015250565b6000611691601d8361127b565b915061169c8261165b565b602082019050919050565b600060208201905081810360008301526116c081611684565b9050919050565b7f4e487b7100000000000000000000000000000000000000000000000000000000600052602260045260246000fd5b6000600282049050600182168061170e57607f821691505b602082108103611721576117206116c7565b5b50919050565b60008190508160005260206000209050919050565b60006020601f8301049050919050565b600082821b905092915050565b6000600883026117897fffffffffffffffffffffffffffffffffffffffffffffffffffffffffffffffff8261174c565b611793868361174c565b95508019841693508086168417925050509392505050565b6000819050919050565b6000819050919050565b60006117da6117d56117d0846117ab565b6117b5565b6117ab565b9050919050565b6000819050919050565b6117f4836117bf565b611808611800826117e1565b848454611759565b825550505050565b600090565b61181d611810565b6118288184846117eb565b505050565b5b8181101561184c57611841600082611815565b60018101905061182e565b5050565b601f8211156118915761186281611727565b61186b8461173c565b8101602085101561187a578190505b61188e6118868561173c565b83018261182d565b50505b505050565b600082821c905092915050565b60006118b460001984600802611896565b1980831691505092915050565b60006118cd83836118a3565b9150826002028217905092915050565b6118e682611270565b67ffffffffffffffff8111156118ff576118fe610f86565b5b61190982546116f6565b611914828285611850565b600060209050601f8311600181146119475760008415611935578287015190505b61193f85826118c1565b8655506119a7565b601f19841661195586611727565b60005b8281101561197d57848901518255600182019150602085019450602081019050611958565b8683101561199a5784890151611996601f8916826118a3565b8355505b6001600288020188555050505b505050505050565b600060608201905081810360008301526119c981866112b6565b905081810360208301526119dd81856112b6565b90506119ec6040830184611261565b949350505050565b7f446961676e6f73746963206e6f74207265676973746572656400000000000000600082015250565b6000611a2a60198361127b565b9150611a35826119f4565b602082019050919050565b60006020820190508181036000830152611a5981611a1d565b9050919050565b60008154611a6d816116f6565b611a778186611608565b94506001821660008114611a925760018114611aa757611ada565b60ff1983168652811515820286019350611ada565b611ab085611727565b60005b83811015611ad257815481890152600182019150602081019050611ab3565b838801955050505b50505092915050565b6000611aef8284611a60565b915081905092915050565b7f4e487b7100000000000000000000000000000000000000000000000000000000600052603260045260246000fd5b7f4e487b7100000000000000000000000000000000000000000000000000000000600052601160045260246000fd5b6000611b63826117ab565b91507fffffffffffffffffffffffffffffffffffffffffffffffffffffffffffffffff8203611b9557611b94611b29565b5b60018201905091905056fea2646970667358221220b88c372636b2eb4dc19a4a658b11cfd230d31e6277c89eb884b7c2a836f1427f64736f6c63430008130033",
  "immutableReferences": {},
  "source": "// SPDX-License-Identifier: MIT\r\npragma solidity ^0.8.19;\r\n\r\ncontract DiagnosticRegistration {\r\n    struct Diagnostic {\r\n        address walletAddress;\r\n        string diagnosticName;\r\n        string hospitalName;\r\n        string diagnosticLocation;\r\n        string email;\r\n        string hhNumber;\r\n        string password;\r\n    }\r\n\r\n    mapping(string => address) private diagnosticAddresses;\r\n    mapping(string => Diagnostic) private diagnostics;\r\n    string[] private diagnosticKeys; // Track registered diagnostics\r\n\r\n    event DiagnosticRegistered(string hhNumber, string diagnosticName, address walletAddress);\r\n\r\n    function registerDiagnostic(\r\n        string memory _diagnosticName,\r\n        string memory _hospitalName,\r\n        string memory _diagnosticLocation,\r\n        string memory _email,\r\n        string memory _hhNumber,\r\n        string memory _password\r\n    ) external {\r\n        require(diagnosticAddresses[_hhNumber] == address(0), \"Diagnostic already registered\");\r\n\r\n        Diagnostic memory newDiagnostic = Diagnostic({\r\n            walletAddress: msg.sender,\r\n            diagnosticName: _diagnosticName,\r\n            hospitalName: _hospitalName,\r\n            diagnosticLocation: _diagnosticLocation,\r\n            email: _email,\r\n            hhNumber: _hhNumber,\r\n            password: _password\r\n        });\r\n\r\n        diagnostics[_hhNumber] = newDiagnostic;\r\n        diagnosticAddresses[_hhNumber] = msg.sender;\r\n        diagnosticKeys.push(_hhNumber); // Store diagnostic key\r\n        emit DiagnosticRegistered(_hhNumber, _diagnosticName, msg.sender);\r\n    }\r\n\r\n    function isRegisteredDiagnostic(string memory _hhNumber) external view returns (bool) {\r\n        return diagnosticAddresses[_hhNumber] != address(0);\r\n    }\r\n\r\n    function getDiagnosticDetails(string memory _hhNumber) external view returns (\r\n        address _walletAddress,\r\n        string memory _diagnosticName,\r\n        string memory _hospitalName,\r\n        string memory _diagnosticLocation,\r\n        string memory _email\r\n    ) {\r\n        require(diagnosticAddresses[_hhNumber] != address(0), \"Diagnostic not registered\");\r\n        Diagnostic memory diagnostic = diagnostics[_hhNumber];\r\n        return (\r\n            diagnostic.walletAddress,\r\n            diagnostic.diagnosticName,\r\n            diagnostic.hospitalName,\r\n            diagnostic.diagnosticLocation,\r\n            diagnostic.email\r\n        );\r\n    }\r\n\r\n    function getDiagnosticList() public view returns (Diagnostic[] memory) {\r\n        Diagnostic[] memory diagnosticArray = new Diagnostic[](diagnosticKeys.length);\r\n        \r\n        for (uint i = 0; i < diagnosticKeys.length; i++) {\r\n            diagnosticArray[i] = diagnostics[diagnosticKeys[i]];\r\n        }\r\n        \r\n        return diagnosticArray;\r\n    }\r\n\r\n    function validatePassword(string memory _hhNumber, string memory _password) external view returns (bool) {\r\n        require(diagnosticAddresses[_hhNumber] != address(0), \"Diagnostic not registered\");\r\n        return keccak256(abi.encodePacked(_password)) == keccak256(abi.encodePacked(diagnostics[_hhNumber].password));\r\n    }\r\n}",
  "sourcePath": "D:\\Patients Record Management\\Patients Record Management\\src\\contracts\\DiagnosticRegistration.sol",
  "compiler": {
    "name": "solc",
    "version": "0.8.19+commit.7dd6d404.Emscripten.clang"
  },
  "schemaVersion": "3.4.16",
  "updatedAt": "2025-04-15T01:31:26.678Z",
  "networkType": "ethereum",
  "devdoc": {
    "kind": "dev",
    "methods": {},
    "version": 1
  },
  "userdoc": {
    "kind": "user",
    "methods": {},
    "version": 1
  }
}