{
  "contractName": "DoctorRegistration",
  "abi": [
    {
      "anonymous": false,
      "inputs": [
        {
          "indexed": false,
          "internalType": "string",
          "name": "hhNumber",
          "type": "string"
        },
        {
          "indexed": false,
          "internalType": "string",
          "name": "doctorName",
          "type": "string"
        },
        {
          "indexed": false,
          "internalType": "address",
          "name": "walletAddress",
          "type": "address"
        }
      ],
      "name": "DoctorRegistered",
      "type": "event"
    },
    {
      "inputs": [
        {
          "internalType": "string",
          "name": "",
          "type": "string"
        },
        {
          "internalType": "string",
          "name": "",
          "type": "string"
        }
      ],
      "name": "doctorPermissions",
      "outputs": [
        {
          "internalType": "bool",
          "name": "",
          "type": "bool"
        }
      ],
      "stateMutability": "view",
      "type": "function",
      "constant": true
    },
    {
      "inputs": [
        {
          "internalType": "string",
          "name": "_doctorName",
          "type": "string"
        },
        {
          "internalType": "string",
          "name": "_hospitalName",
          "type": "string"
        },
        {
          "internalType": "string",
          "name": "_dateOfBirth",
          "type": "string"
        },
        {
          "internalType": "string",
          "name": "_gender",
          "type": "string"
        },
        {
          "internalType": "string",
          "name": "_email",
          "type": "string"
        },
        {
          "internalType": "string",
          "name": "_hhNumber",
          "type": "string"
        },
        {
          "internalType": "string",
          "name": "_specialization",
          "type": "string"
        },
        {
          "internalType": "string",
          "name": "_department",
          "type": "string"
        },
        {
          "internalType": "string",
          "name": "_designation",
          "type": "string"
        },
        {
          "internalType": "string",
          "name": "_workExperience",
          "type": "string"
        },
        {
          "internalType": "string",
          "name": "_password",
          "type": "string"
        }
      ],
      "name": "registerDoctor",
      "outputs": [],
      "stateMutability": "nonpayable",
      "type": "function"
    },
    {
      "inputs": [
        {
          "internalType": "string",
          "name": "_hhNumber",
          "type": "string"
        }
      ],
      "name": "isRegisteredDoctor",
      "outputs": [
        {
          "internalType": "bool",
          "name": "",
          "type": "bool"
        }
      ],
      "stateMutability": "view",
      "type": "function",
      "constant": true
    },
    {
      "inputs": [
        {
          "internalType": "string",
          "name": "_hhNumber",
          "type": "string"
        }
      ],
      "name": "getDoctorDetails",
      "outputs": [
        {
          "internalType": "address",
          "name": "_walletAddress",
          "type": "address"
        },
        {
          "internalType": "string",
          "name": "_doctorName",
          "type": "string"
        },
        {
          "internalType": "string",
          "name": "_hospitalName",
          "type": "string"
        },
        {
          "internalType": "string",
          "name": "_dateOfBirth",
          "type": "string"
        },
        {
          "internalType": "string",
          "name": "_gender",
          "type": "string"
        },
        {
          "internalType": "string",
          "name": "_email",
          "type": "string"
        },
        {
          "internalType": "string",
          "name": "_specialization",
          "type": "string"
        },
        {
          "internalType": "string",
          "name": "_department",
          "type": "string"
        },
        {
          "internalType": "string",
          "name": "_designation",
          "type": "string"
        },
        {
          "internalType": "string",
          "name": "_workExperience",
          "type": "string"
        }
      ],
      "stateMutability": "view",
      "type": "function",
      "constant": true
    },
    {
      "inputs": [
        {
          "internalType": "string",
          "name": "_hhNumber",
          "type": "string"
        },
        {
          "internalType": "string",
          "name": "_password",
          "type": "string"
        }
      ],
      "name": "validatePassword",
      "outputs": [
        {
          "internalType": "bool",
          "name": "",
          "type": "bool"
        }
      ],
      "stateMutability": "view",
      "type": "function",
      "constant": true
    },
    {
      "inputs": [
        {
          "internalType": "string",
          "name": "_patientNumber",
          "type": "string"
        },
        {
          "internalType": "string",
          "name": "_doctorNumber",
          "type": "string"
        },
        {
          "internalType": "string",
          "name": "_patientName",
          "type": "string"
        }
      ],
      "name": "grantPermission",
      "outputs": [],
      "stateMutability": "nonpayable",
      "type": "function"
    },
    {
      "inputs": [
        {
          "internalType": "string",
          "name": "_patientNumber",
          "type": "string"
        },
        {
          "internalType": "string",
          "name": "_doctorNumber",
          "type": "string"
        }
      ],
      "name": "isPermissionGranted",
      "outputs": [
        {
          "internalType": "bool",
          "name": "",
          "type": "bool"
        }
      ],
      "stateMutability": "view",
      "type": "function",
      "constant": true
    },
    {
      "inputs": [
        {
          "internalType": "string",
          "name": "_patientNumber",
          "type": "string"
        },
        {
          "internalType": "string",
          "name": "_doctorNumber",
          "type": "string"
        }
      ],
      "name": "revokePermission",
      "outputs": [],
      "stateMutability": "nonpayable",
      "type": "function"
    },
    {
      "inputs": [],
      "name": "getDoctorList",
      "outputs": [
        {
          "components": [
            {
              "internalType": "address",
              "name": "walletAddress",
              "type": "address"
            },
            {
              "internalType": "string",
              "name": "doctorName",
              "type": "string"
            },
            {
              "internalType": "string",
              "name": "hospitalName",
              "type": "string"
            },
            {
              "internalType": "string",
              "name": "dateOfBirth",
              "type": "string"
            },
            {
              "internalType": "string",
              "name": "gender",
              "type": "string"
            },
            {
              "internalType": "string",
              "name": "email",
              "type": "string"
            },
            {
              "internalType": "string",
              "name": "hhNumber",
              "type": "string"
            },
            {
              "internalType": "string",
              "name": "specialization",
              "type": "string"
            },
            {
              "internalType": "string",
              "name": "department",
              "type": "string"
            },
            {
              "internalType": "string",
              "name": "designation",
              "type": "string"
            },
            {
              "internalType": "string",
              "name": "workExperience",
              "type": "string"
            },
            {
              "internalType": "string",
              "name": "password",
              "type": "string"
            }
          ],
          "internalType": "struct DoctorRegistration.Doctor[]",
          "name": "",
          "type": "tuple[]"
        }
      ],
      "stateMutability": "view",
      "type": "function",
      "constant": true
    },
    {
      "inputs": [
        {
          "internalType": "string",
          "name": "_doctorNumber",
          "type": "string"
        }
      ],
      "name": "getPatientList",
      "outputs": [
        {
          "components": [
            {
              "internalType": "string",
              "name": "patient_number",
              "type": "string"
            },
            {
              "internalType": "string",
              "name": "patient_name",
              "type": "string"
            }
          ],
          "internalType": "struct DoctorRegistration.PatientList[]",
          "name": "",
          "type": "tuple[]"
        }
      ],
      "stateMutability": "view",
      "type": "function",
      "constant": true
    }
  ],
  "bytecode": "0x608060405234801561001057600080fd5b50613061806100206000396000f3fe608060405234801561001057600080fd5b506004361061009e5760003560e01c806391c12f761161006657806391c12f7614610174578063a46bef15146101a4578063a71aefc9146101d4578063ac5f9fd0146101f2578063d120c10c1461020e5761009e565b80631cd1bd58146100a35780633e769767146100bf57806344334733146100f85780635df67040146101285780637babdb2614610144575b600080fd5b6100bd60048036038101906100b89190611fee565b61023e565b005b6100d960048036038101906100d49190612216565b610591565b6040516100ef9a9998979695949392919061231f565b60405180910390f35b610112600480360381019061010d91906123fa565b610d6f565b60405161011f919061248d565b60405180910390f35b610142600480360381019061013d91906124a8565b610dca565b005b61015e600480360381019061015991906123fa565b610f5f565b60405161016b919061248d565b60405180910390f35b61018e60048036038101906101899190612216565b611084565b60405161019b919061269f565b60405180910390f35b6101be60048036038101906101b99190612216565b611225565b6040516101cb919061248d565b60405180910390f35b6101dc61129c565b6040516101e991906128dc565b60405180910390f35b61020c600480360381019061020791906123fa565b611a27565b005b610228600480360381019061022391906123fa565b611d6e565b604051610235919061248d565b60405180910390f35b600073ffffffffffffffffffffffffffffffffffffffff16600087604051610266919061293a565b908152602001604051809103902060009054906101000a900473ffffffffffffffffffffffffffffffffffffffff1673ffffffffffffffffffffffffffffffffffffffff16146102eb576040517f08c379a00000000000000000000000000000000000000000000000000000000081526004016102e29061299d565b60405180910390fd5b60006040518061018001604052803373ffffffffffffffffffffffffffffffffffffffff1681526020018d81526020018c81526020018b81526020018a815260200189815260200188815260200187815260200186815260200185815260200184815260200183815250905080600188604051610368919061293a565b908152602001604051809103902060008201518160000160006101000a81548173ffffffffffffffffffffffffffffffffffffffff021916908373ffffffffffffffffffffffffffffffffffffffff16021790555060208201518160010190816103d29190612bd3565b5060408201518160020190816103e89190612bd3565b5060608201518160030190816103fe9190612bd3565b5060808201518160040190816104149190612bd3565b5060a082015181600501908161042a9190612bd3565b5060c08201518160060190816104409190612bd3565b5060e08201518160070190816104569190612bd3565b5061010082015181600801908161046d9190612bd3565b506101208201518160090190816104849190612bd3565b5061014082015181600a01908161049b9190612bd3565b5061016082015181600b0190816104b29190612bd3565b50905050336000886040516104c7919061293a565b908152602001604051809103902060006101000a81548173ffffffffffffffffffffffffffffffffffffffff021916908373ffffffffffffffffffffffffffffffffffffffff1602179055506004879080600181540180825580915050600190039060005260206000200160009091909190915090816105479190612bd3565b507f8d3f9c8a09dcd94bc9c847110caac40824996b777a45809b38b82b9aa3f71ec8878d3360405161057b93929190612ca5565b60405180910390a1505050505050505050505050565b60006060806060806060806060806060600073ffffffffffffffffffffffffffffffffffffffff1660008c6040516105c9919061293a565b908152602001604051809103902060009054906101000a900473ffffffffffffffffffffffffffffffffffffffff1673ffffffffffffffffffffffffffffffffffffffff160361064e576040517f08c379a000000000000000000000000000000000000000000000000000000000815260040161064590612d36565b60405180910390fd5b600060018c604051610660919061293a565b9081526020016040518091039020604051806101800160405290816000820160009054906101000a900473ffffffffffffffffffffffffffffffffffffffff1673ffffffffffffffffffffffffffffffffffffffff1673ffffffffffffffffffffffffffffffffffffffff1681526020016001820180546106e0906129ec565b80601f016020809104026020016040519081016040528092919081815260200182805461070c906129ec565b80156107595780601f1061072e57610100808354040283529160200191610759565b820191906000526020600020905b81548152906001019060200180831161073c57829003601f168201915b50505050508152602001600282018054610772906129ec565b80601f016020809104026020016040519081016040528092919081815260200182805461079e906129ec565b80156107eb5780601f106107c0576101008083540402835291602001916107eb565b820191906000526020600020905b8154815290600101906020018083116107ce57829003601f168201915b50505050508152602001600382018054610804906129ec565b80601f0160208091040260200160405190810160405280929190818152602001828054610830906129ec565b801561087d5780601f106108525761010080835404028352916020019161087d565b820191906000526020600020905b81548152906001019060200180831161086057829003601f168201915b50505050508152602001600482018054610896906129ec565b80601f01602080910402602001604051908101604052809291908181526020018280546108c2906129ec565b801561090f5780601f106108e45761010080835404028352916020019161090f565b820191906000526020600020905b8154815290600101906020018083116108f257829003601f168201915b50505050508152602001600582018054610928906129ec565b80601f0160208091040260200160405190810160405280929190818152602001828054610954906129ec565b80156109a15780601f10610976576101008083540402835291602001916109a1565b820191906000526020600020905b81548152906001019060200180831161098457829003601f168201915b505050505081526020016006820180546109ba906129ec565b80601f01602080910402602001604051908101604052809291908181526020018280546109e6906129ec565b8015610a335780601f10610a0857610100808354040283529160200191610a33565b820191906000526020600020905b815481529060010190602001808311610a1657829003601f168201915b50505050508152602001600782018054610a4c906129ec565b80601f0160208091040260200160405190810160405280929190818152602001828054610a78906129ec565b8015610ac55780601f10610a9a57610100808354040283529160200191610ac5565b820191906000526020600020905b815481529060010190602001808311610aa857829003601f168201915b50505050508152602001600882018054610ade906129ec565b80601f0160208091040260200160405190810160405280929190818152602001828054610b0a906129ec565b8015610b575780601f10610b2c57610100808354040283529160200191610b57565b820191906000526020600020905b815481529060010190602001808311610b3a57829003601f168201915b50505050508152602001600982018054610b70906129ec565b80601f0160208091040260200160405190810160405280929190818152602001828054610b9c906129ec565b8015610be95780601f10610bbe57610100808354040283529160200191610be9565b820191906000526020600020905b815481529060010190602001808311610bcc57829003601f168201915b50505050508152602001600a82018054610c02906129ec565b80601f0160208091040260200160405190810160405280929190818152602001828054610c2e906129ec565b8015610c7b5780601f10610c5057610100808354040283529160200191610c7b565b820191906000526020600020905b815481529060010190602001808311610c5e57829003601f168201915b50505050508152602001600b82018054610c94906129ec565b80601f0160208091040260200160405190810160405280929190818152602001828054610cc0906129ec565b8015610d0d5780601f10610ce257610100808354040283529160200191610d0d565b820191906000526020600020905b815481529060010190602001808311610cf057829003601f168201915b5050505050815250509050806000015181602001518260400151836060015184608001518560a001518660e001518761010001518861012001518961014001519a509a509a509a509a509a509a509a509a509a50509193959799509193959799565b600382805160208101820180518482526020830160208501208183528095505050505050818051602081018201805184825260208301602085012081835280955050505050506000915091509054906101000a900460ff1681565b600073ffffffffffffffffffffffffffffffffffffffff16600083604051610df2919061293a565b908152602001604051809103902060009054906101000a900473ffffffffffffffffffffffffffffffffffffffff1673ffffffffffffffffffffffffffffffffffffffff1603610e77576040517f08c379a0000000000000000000000000000000000000000000000000000000008152600401610e6e90612d36565b60405180910390fd5b60006040518060400160405280858152602001838152509050600283604051610ea0919061293a565b90815260200160405180910390208190806001815401808255809150506001900390600052602060002090600202016000909190919091506000820151816000019081610eed9190612bd3565b506020820151816001019081610f039190612bd3565b5050506001600385604051610f18919061293a565b908152602001604051809103902084604051610f34919061293a565b908152602001604051809103902060006101000a81548160ff02191690831515021790555050505050565b60008073ffffffffffffffffffffffffffffffffffffffff16600084604051610f88919061293a565b908152602001604051809103902060009054906101000a900473ffffffffffffffffffffffffffffffffffffffff1673ffffffffffffffffffffffffffffffffffffffff160361100d576040517f08c379a000000000000000000000000000000000000000000000000000000000815260040161100490612d36565b60405180910390fd5b60018360405161101d919061293a565b9081526020016040518091039020600b0160405160200161103e9190612dd9565b6040516020818303038152906040528051906020012082604051602001611065919061293a565b6040516020818303038152906040528051906020012014905092915050565b6060600282604051611096919061293a565b9081526020016040518091039020805480602002602001604051908101604052809291908181526020016000905b8282101561121a57838290600052602060002090600202016040518060400160405290816000820180546110f7906129ec565b80601f0160208091040260200160405190810160405280929190818152602001828054611123906129ec565b80156111705780601f1061114557610100808354040283529160200191611170565b820191906000526020600020905b81548152906001019060200180831161115357829003601f168201915b50505050508152602001600182018054611189906129ec565b80601f01602080910402602001604051908101604052809291908181526020018280546111b5906129ec565b80156112025780601f106111d757610100808354040283529160200191611202565b820191906000526020600020905b8154815290600101906020018083116111e557829003601f168201915b505050505081525050815260200190600101906110c4565b505050509050919050565b60008073ffffffffffffffffffffffffffffffffffffffff1660008360405161124e919061293a565b908152602001604051809103902060009054906101000a900473ffffffffffffffffffffffffffffffffffffffff1673ffffffffffffffffffffffffffffffffffffffff1614159050919050565b6060600060048054905067ffffffffffffffff8111156112bf576112be611ec3565b5b6040519080825280602002602001820160405280156112f857816020015b6112e5611dc0565b8152602001906001900390816112dd5790505b50905060005b600480549050811015611a1f5760016004828154811061132157611320612df0565b5b906000526020600020016040516113389190612dd9565b9081526020016040518091039020604051806101800160405290816000820160009054906101000a900473ffffffffffffffffffffffffffffffffffffffff1673ffffffffffffffffffffffffffffffffffffffff1673ffffffffffffffffffffffffffffffffffffffff1681526020016001820180546113b8906129ec565b80601f01602080910402602001604051908101604052809291908181526020018280546113e4906129ec565b80156114315780601f1061140657610100808354040283529160200191611431565b820191906000526020600020905b81548152906001019060200180831161141457829003601f168201915b5050505050815260200160028201805461144a906129ec565b80601f0160208091040260200160405190810160405280929190818152602001828054611476906129ec565b80156114c35780601f10611498576101008083540402835291602001916114c3565b820191906000526020600020905b8154815290600101906020018083116114a657829003601f168201915b505050505081526020016003820180546114dc906129ec565b80601f0160208091040260200160405190810160405280929190818152602001828054611508906129ec565b80156115555780601f1061152a57610100808354040283529160200191611555565b820191906000526020600020905b81548152906001019060200180831161153857829003601f168201915b5050505050815260200160048201805461156e906129ec565b80601f016020809104026020016040519081016040528092919081815260200182805461159a906129ec565b80156115e75780601f106115bc576101008083540402835291602001916115e7565b820191906000526020600020905b8154815290600101906020018083116115ca57829003601f168201915b50505050508152602001600582018054611600906129ec565b80601f016020809104026020016040519081016040528092919081815260200182805461162c906129ec565b80156116795780601f1061164e57610100808354040283529160200191611679565b820191906000526020600020905b81548152906001019060200180831161165c57829003601f168201915b50505050508152602001600682018054611692906129ec565b80601f01602080910402602001604051908101604052809291908181526020018280546116be906129ec565b801561170b5780601f106116e05761010080835404028352916020019161170b565b820191906000526020600020905b8154815290600101906020018083116116ee57829003601f168201915b50505050508152602001600782018054611724906129ec565b80601f0160208091040260200160405190810160405280929190818152602001828054611750906129ec565b801561179d5780601f106117725761010080835404028352916020019161179d565b820191906000526020600020905b81548152906001019060200180831161178057829003601f168201915b505050505081526020016008820180546117b6906129ec565b80601f01602080910402602001604051908101604052809291908181526020018280546117e2906129ec565b801561182f5780601f106118045761010080835404028352916020019161182f565b820191906000526020600020905b81548152906001019060200180831161181257829003601f168201915b50505050508152602001600982018054611848906129ec565b80601f0160208091040260200160405190810160405280929190818152602001828054611874906129ec565b80156118c15780601f10611896576101008083540402835291602001916118c1565b820191906000526020600020905b8154815290600101906020018083116118a457829003601f168201915b50505050508152602001600a820180546118da906129ec565b80601f0160208091040260200160405190810160405280929190818152602001828054611906906129ec565b80156119535780601f1061192857610100808354040283529160200191611953565b820191906000526020600020905b81548152906001019060200180831161193657829003601f168201915b50505050508152602001600b8201805461196c906129ec565b80601f0160208091040260200160405190810160405280929190818152602001828054611998906129ec565b80156119e55780601f106119ba576101008083540402835291602001916119e5565b820191906000526020600020905b8154815290600101906020018083116119c857829003601f168201915b505050505081525050828281518110611a0157611a00612df0565b5b60200260200101819052508080611a1790612e4e565b9150506112fe565b508091505090565b600073ffffffffffffffffffffffffffffffffffffffff16600082604051611a4f919061293a565b908152602001604051809103902060009054906101000a900473ffffffffffffffffffffffffffffffffffffffff1673ffffffffffffffffffffffffffffffffffffffff1603611ad4576040517f08c379a0000000000000000000000000000000000000000000000000000000008152600401611acb90612d36565b60405180910390fd5b6000600383604051611ae6919061293a565b908152602001604051809103902082604051611b02919061293a565b908152602001604051809103902060006101000a81548160ff02191690831515021790555060005b600282604051611b3a919061293a565b908152602001604051809103902080549050811015611d695782604051602001611b64919061293a565b60405160208183030381529060405280519060200120600283604051611b8a919061293a565b90815260200160405180910390208281548110611baa57611ba9612df0565b5b9060005260206000209060020201600001604051602001611bcb9190612dd9565b6040516020818303038152906040528051906020012003611d565760008190505b6001600284604051611bfe919061293a565b908152602001604051809103902080549050611c1a9190612e96565b811015611ce957600283604051611c31919061293a565b9081526020016040518091039020600182611c4c9190612eca565b81548110611c5d57611c5c612df0565b5b9060005260206000209060020201600284604051611c7b919061293a565b90815260200160405180910390208281548110611c9b57611c9a612df0565b5b906000526020600020906002020160008201816000019081611cbd9190612f14565b5060018201816001019081611cd29190612f14565b509050508080611ce190612e4e565b915050611bec565b50600282604051611cfa919061293a565b9081526020016040518091039020805480611d1857611d17612ffc565b5b600190038181906000526020600020906002020160008082016000611d3d9190611e37565b600182016000611d4d9190611e37565b50509055611d69565b8080611d6190612e4e565b915050611b2a565b505050565b6000600383604051611d80919061293a565b908152602001604051809103902082604051611d9c919061293a565b908152602001604051809103902060009054906101000a900460ff16905092915050565b604051806101800160405280600073ffffffffffffffffffffffffffffffffffffffff16815260200160608152602001606081526020016060815260200160608152602001606081526020016060815260200160608152602001606081526020016060815260200160608152602001606081525090565b508054611e43906129ec565b6000825580601f10611e555750611e74565b601f016020900490600052602060002090810190611e739190611e77565b5b50565b5b80821115611e90576000816000905550600101611e78565b5090565b6000604051905090565b600080fd5b600080fd5b600080fd5b600080fd5b6000601f19601f8301169050919050565b7f4e487b7100000000000000000000000000000000000000000000000000000000600052604160045260246000fd5b611efb82611eb2565b810181811067ffffffffffffffff82111715611f1a57611f19611ec3565b5b80604052505050565b6000611f2d611e94565b9050611f398282611ef2565b919050565b600067ffffffffffffffff821115611f5957611f58611ec3565b5b611f6282611eb2565b9050602081019050919050565b82818337600083830152505050565b6000611f91611f8c84611f3e565b611f23565b905082815260208101848484011115611fad57611fac611ead565b5b611fb8848285611f6f565b509392505050565b600082601f830112611fd557611fd4611ea8565b5b8135611fe5848260208601611f7e565b91505092915050565b60008060008060008060008060008060006101608c8e03121561201457612013611e9e565b5b60008c013567ffffffffffffffff81111561203257612031611ea3565b5b61203e8e828f01611fc0565b9b505060208c013567ffffffffffffffff81111561205f5761205e611ea3565b5b61206b8e828f01611fc0565b9a505060408c013567ffffffffffffffff81111561208c5761208b611ea3565b5b6120988e828f01611fc0565b99505060608c013567ffffffffffffffff8111156120b9576120b8611ea3565b5b6120c58e828f01611fc0565b98505060808c013567ffffffffffffffff8111156120e6576120e5611ea3565b5b6120f28e828f01611fc0565b97505060a08c013567ffffffffffffffff81111561211357612112611ea3565b5b61211f8e828f01611fc0565b96505060c08c013567ffffffffffffffff8111156121405761213f611ea3565b5b61214c8e828f01611fc0565b95505060e08c013567ffffffffffffffff81111561216d5761216c611ea3565b5b6121798e828f01611fc0565b9450506101008c013567ffffffffffffffff81111561219b5761219a611ea3565b5b6121a78e828f01611fc0565b9350506101208c013567ffffffffffffffff8111156121c9576121c8611ea3565b5b6121d58e828f01611fc0565b9250506101408c013567ffffffffffffffff8111156121f7576121f6611ea3565b5b6122038e828f01611fc0565b9150509295989b509295989b9093969950565b60006020828403121561222c5761222b611e9e565b5b600082013567ffffffffffffffff81111561224a57612249611ea3565b5b61225684828501611fc0565b91505092915050565b600073ffffffffffffffffffffffffffffffffffffffff82169050919050565b600061228a8261225f565b9050919050565b61229a8161227f565b82525050565b600081519050919050565b600082825260208201905092915050565b60005b838110156122da5780820151818401526020810190506122bf565b60008484015250505050565b60006122f1826122a0565b6122fb81856122ab565b935061230b8185602086016122bc565b61231481611eb2565b840191505092915050565b600061014082019050612335600083018d612291565b8181036020830152612347818c6122e6565b9050818103604083015261235b818b6122e6565b9050818103606083015261236f818a6122e6565b9050818103608083015261238381896122e6565b905081810360a083015261239781886122e6565b905081810360c08301526123ab81876122e6565b905081810360e08301526123bf81866122e6565b90508181036101008301526123d481856122e6565b90508181036101208301526123e981846122e6565b90509b9a5050505050505050505050565b6000806040838503121561241157612410611e9e565b5b600083013567ffffffffffffffff81111561242f5761242e611ea3565b5b61243b85828601611fc0565b925050602083013567ffffffffffffffff81111561245c5761245b611ea3565b5b61246885828601611fc0565b9150509250929050565b60008115159050919050565b61248781612472565b82525050565b60006020820190506124a2600083018461247e565b92915050565b6000806000606084860312156124c1576124c0611e9e565b5b600084013567ffffffffffffffff8111156124df576124de611ea3565b5b6124eb86828701611fc0565b935050602084013567ffffffffffffffff81111561250c5761250b611ea3565b5b61251886828701611fc0565b925050604084013567ffffffffffffffff81111561253957612538611ea3565b5b61254586828701611fc0565b9150509250925092565b600081519050919050565b600082825260208201905092915050565b6000819050602082019050919050565b600082825260208201905092915050565b6000612597826122a0565b6125a1818561257b565b93506125b18185602086016122bc565b6125ba81611eb2565b840191505092915050565b600060408301600083015184820360008601526125e2828261258c565b915050602083015184820360208601526125fc828261258c565b9150508091505092915050565b600061261583836125c5565b905092915050565b6000602082019050919050565b60006126358261254f565b61263f818561255a565b9350836020820285016126518561256b565b8060005b8581101561268d578484038952815161266e8582612609565b94506126798361261d565b925060208a01995050600181019050612655565b50829750879550505050505092915050565b600060208201905081810360008301526126b9818461262a565b905092915050565b600081519050919050565b600082825260208201905092915050565b6000819050602082019050919050565b6126f68161227f565b82525050565b60006101808301600083015161271560008601826126ed565b506020830151848203602086015261272d828261258c565b91505060408301518482036040860152612747828261258c565b91505060608301518482036060860152612761828261258c565b9150506080830151848203608086015261277b828261258c565b91505060a083015184820360a0860152612795828261258c565b91505060c083015184820360c08601526127af828261258c565b91505060e083015184820360e08601526127c9828261258c565b9150506101008301518482036101008601526127e5828261258c565b915050610120830151848203610120860152612801828261258c565b91505061014083015184820361014086015261281d828261258c565b915050610160830151848203610160860152612839828261258c565b9150508091505092915050565b600061285283836126fc565b905092915050565b6000602082019050919050565b6000612872826126c1565b61287c81856126cc565b93508360208202850161288e856126dd565b8060005b858110156128ca57848403895281516128ab8582612846565b94506128b68361285a565b925060208a01995050600181019050612892565b50829750879550505050505092915050565b600060208201905081810360008301526128f68184612867565b905092915050565b600081905092915050565b6000612914826122a0565b61291e81856128fe565b935061292e8185602086016122bc565b80840191505092915050565b60006129468284612909565b915081905092915050565b7f446f63746f7220616c7265616479207265676973746572656400000000000000600082015250565b60006129876019836122ab565b915061299282612951565b602082019050919050565b600060208201905081810360008301526129b68161297a565b9050919050565b7f4e487b7100000000000000000000000000000000000000000000000000000000600052602260045260246000fd5b60006002820490506001821680612a0457607f821691505b602082108103612a1757612a166129bd565b5b50919050565b60008190508160005260206000209050919050565b60006020601f8301049050919050565b600082821b905092915050565b600060088302612a7f7fffffffffffffffffffffffffffffffffffffffffffffffffffffffffffffffff82612a42565b612a898683612a42565b95508019841693508086168417925050509392505050565b6000819050919050565b6000819050919050565b6000612ad0612acb612ac684612aa1565b612aab565b612aa1565b9050919050565b6000819050919050565b612aea83612ab5565b612afe612af682612ad7565b848454612a4f565b825550505050565b600090565b612b13612b06565b612b1e818484612ae1565b505050565b5b81811015612b4257612b37600082612b0b565b600181019050612b24565b5050565b601f821115612b8757612b5881612a1d565b612b6184612a32565b81016020851015612b70578190505b612b84612b7c85612a32565b830182612b23565b50505b505050565b600082821c905092915050565b6000612baa60001984600802612b8c565b1980831691505092915050565b6000612bc38383612b99565b9150826002028217905092915050565b612bdc826122a0565b67ffffffffffffffff811115612bf557612bf4611ec3565b5b612bff82546129ec565b612c0a828285612b46565b600060209050601f831160018114612c3d5760008415612c2b578287015190505b612c358582612bb7565b865550612c9d565b601f198416612c4b86612a1d565b60005b82811015612c7357848901518255600182019150602085019450602081019050612c4e565b86831015612c905784890151612c8c601f891682612b99565b8355505b6001600288020188555050505b505050505050565b60006060820190508181036000830152612cbf81866122e6565b90508181036020830152612cd381856122e6565b9050612ce26040830184612291565b949350505050565b7f446f63746f72206e6f7420726567697374657265640000000000000000000000600082015250565b6000612d206015836122ab565b9150612d2b82612cea565b602082019050919050565b60006020820190508181036000830152612d4f81612d13565b9050919050565b60008154612d63816129ec565b612d6d81866128fe565b94506001821660008114612d885760018114612d9d57612dd0565b60ff1983168652811515820286019350612dd0565b612da685612a1d565b60005b83811015612dc857815481890152600182019150602081019050612da9565b838801955050505b50505092915050565b6000612de58284612d56565b915081905092915050565b7f4e487b7100000000000000000000000000000000000000000000000000000000600052603260045260246000fd5b7f4e487b7100000000000000000000000000000000000000000000000000000000600052601160045260246000fd5b6000612e5982612aa1565b91507fffffffffffffffffffffffffffffffffffffffffffffffffffffffffffffffff8203612e8b57612e8a612e1f565b5b600182019050919050565b6000612ea182612aa1565b9150612eac83612aa1565b9250828203905081811115612ec457612ec3612e1f565b5b92915050565b6000612ed582612aa1565b9150612ee083612aa1565b9250828201905080821115612ef857612ef7612e1f565b5b92915050565b600081549050612f0d816129ec565b9050919050565b818103612f22575050612ffa565b612f2b82612efe565b67ffffffffffffffff811115612f4457612f43611ec3565b5b612f4e82546129ec565b612f59828285612b46565b6000601f831160018114612f885760008415612f76578287015490505b612f808582612bb7565b865550612ff3565b601f198416612f9687612a1d565b9650612fa186612a1d565b60005b82811015612fc957848901548255600182019150600185019450602081019050612fa4565b86831015612fe65784890154612fe2601f891682612b99565b8355505b6001600288020188555050505b5050505050505b565b7f4e487b7100000000000000000000000000000000000000000000000000000000600052603160045260246000fdfea26469706673582212204f7a9fa66711303adf5798755ebc3f0af3a54e057520d025d75493965ca0c34664736f6c63430008130033",
  "immutableReferences": {},
  "source": "// SPDX-License-Identifier: MIT\r\npragma solidity ^0.8.19;\r\n\r\ncontract DoctorRegistration {\r\n    struct Doctor {\r\n        address walletAddress;\r\n        string doctorName;\r\n        string hospitalName;\r\n        string dateOfBirth;\r\n        string gender;\r\n        string email;\r\n        string hhNumber;\r\n        string specialization;\r\n        string department;\r\n        string designation;\r\n        string workExperience;\r\n        string password;\r\n    }\r\n\r\n    struct PatientList {\r\n        string patient_number;\r\n        string patient_name;\r\n    }\r\n\r\n    mapping(string => address) private doctorAddresses;\r\n    mapping(string => Doctor) private doctors;\r\n    mapping(string => PatientList[]) private Dpermission;\r\n    mapping(string => mapping(string => bool)) public doctorPermissions;\r\n\r\n    string[] private doctorKeys; // Store doctor keys for iteration\r\n\r\n    event DoctorRegistered(string hhNumber, string doctorName, address walletAddress);\r\n\r\n    function registerDoctor(\r\n        string memory _doctorName,\r\n        string memory _hospitalName,\r\n        string memory _dateOfBirth,\r\n        string memory _gender,\r\n        string memory _email,\r\n        string memory _hhNumber,\r\n        string memory _specialization,\r\n        string memory _department,\r\n        string memory _designation,\r\n        string memory _workExperience,\r\n        string memory _password\r\n    ) external {\r\n        require(doctorAddresses[_hhNumber] == address(0), \"Doctor already registered\");\r\n\r\n        Doctor memory newDoctor = Doctor({\r\n            walletAddress: msg.sender,\r\n            doctorName: _doctorName,\r\n            hospitalName: _hospitalName,\r\n            dateOfBirth: _dateOfBirth,\r\n            gender: _gender,\r\n            email: _email,\r\n            hhNumber: _hhNumber,\r\n            specialization: _specialization,\r\n            department: _department,\r\n            designation: _designation,\r\n            workExperience: _workExperience,\r\n            password: _password\r\n        });\r\n\r\n        doctors[_hhNumber] = newDoctor;\r\n        doctorAddresses[_hhNumber] = msg.sender;\r\n        doctorKeys.push(_hhNumber); // Store doctor key\r\n        emit DoctorRegistered(_hhNumber, _doctorName, msg.sender);\r\n    }\r\n\r\n    function isRegisteredDoctor(string memory _hhNumber) external view returns (bool) {\r\n        return doctorAddresses[_hhNumber] != address(0);\r\n    }\r\n\r\n    function getDoctorDetails(string memory _hhNumber) external view returns (\r\n        address _walletAddress,\r\n        string memory _doctorName,\r\n        string memory _hospitalName,\r\n        string memory _dateOfBirth,\r\n        string memory _gender,\r\n        string memory _email,\r\n        string memory _specialization,\r\n        string memory _department,\r\n        string memory _designation,\r\n        string memory _workExperience\r\n    ) {\r\n        require(doctorAddresses[_hhNumber] != address(0), \"Doctor not registered\");\r\n        Doctor memory doctor = doctors[_hhNumber];\r\n        return (\r\n            doctor.walletAddress,\r\n            doctor.doctorName,\r\n            doctor.hospitalName,\r\n            doctor.dateOfBirth,\r\n            doctor.gender,\r\n            doctor.email,\r\n            doctor.specialization,\r\n            doctor.department,\r\n            doctor.designation,\r\n            doctor.workExperience\r\n        );\r\n    }\r\n\r\n    function validatePassword(string memory _hhNumber, string memory _password) external view returns (bool) {\r\n        require(doctorAddresses[_hhNumber] != address(0), \"Doctor not registered\");\r\n        return keccak256(abi.encodePacked(_password)) == keccak256(abi.encodePacked(doctors[_hhNumber].password));\r\n    }\r\n\r\n    function grantPermission(\r\n        string memory _patientNumber,\r\n        string memory _doctorNumber,\r\n        string memory _patientName\r\n    ) external {\r\n        require(doctorAddresses[_doctorNumber] != address(0), \"Doctor not registered\");\r\n\r\n        PatientList memory newRecord = PatientList(\r\n            _patientNumber,\r\n            _patientName\r\n        );\r\n        Dpermission[_doctorNumber].push(newRecord);\r\n        doctorPermissions[_patientNumber][_doctorNumber] = true;\r\n    }\r\n\r\n    function isPermissionGranted(string memory _patientNumber, string memory _doctorNumber) external view returns (bool) {\r\n        return doctorPermissions[_patientNumber][_doctorNumber];\r\n    }\r\n\r\n    function revokePermission(string memory _patientNumber, string memory _doctorNumber) public {\r\n        require(doctorAddresses[_doctorNumber] != address(0), \"Doctor not registered\");\r\n\r\n        doctorPermissions[_patientNumber][_doctorNumber] = false;\r\n\r\n        for (uint i = 0; i < Dpermission[_doctorNumber].length; i++) {\r\n            if (keccak256(abi.encodePacked(Dpermission[_doctorNumber][i].patient_number)) == keccak256(abi.encodePacked(_patientNumber))) {\r\n                for (uint j = i; j < Dpermission[_doctorNumber].length - 1; j++) {\r\n                    Dpermission[_doctorNumber][j] = Dpermission[_doctorNumber][j + 1];\r\n                }\r\n                Dpermission[_doctorNumber].pop();\r\n                break;\r\n            }\r\n        }\r\n    }\r\n\r\n    function getDoctorList() public view returns (Doctor[] memory) {\r\n        Doctor[] memory doctorArray = new Doctor[](doctorKeys.length);\r\n        \r\n        for (uint i = 0; i < doctorKeys.length; i++) {\r\n            doctorArray[i] = doctors[doctorKeys[i]];\r\n        }\r\n        \r\n        return doctorArray;\r\n    }\r\n\r\n    function getPatientList(string memory _doctorNumber) public view returns (PatientList[] memory) {\r\n        return Dpermission[_doctorNumber];\r\n    }\r\n}",
  "sourcePath": "D:\\Patients Record Management\\Patients Record Management\\src\\contracts\\DoctorRegistration.sol",
  "compiler": {
    "name": "solc",
    "version": "0.8.19+commit.7dd6d404.Emscripten.clang"
  },
  "schemaVersion": "3.4.16",
  "updatedAt": "2025-04-15T01:31:25.165Z",
  "networkType": "ethereum",
  "devdoc": {
    "kind": "dev",
    "methods": {},
    "version": 1
  },
  "userdoc": {
    "kind": "user",
    "methods": {},
    "version": 1
  }
}