{
  "contractName": "DoctorForm",
  "abi": [
    {
      "anonymous": false,
      "inputs": [
        {
          "indexed": false,
          "internalType": "string",
          "name": "recordId",
          "type": "string"
        },
        {
          "indexed": false,
          "internalType": "address",
          "name": "patientWalletAddress",
          "type": "address"
        },
        {
          "indexed": false,
          "internalType": "address",
          "name": "doctorAddress",
          "type": "address"
        },
        {
          "indexed": false,
          "internalType": "string",
          "name": "gender",
          "type": "string"
        },
        {
          "indexed": false,
          "internalType": "string",
          "name": "diagnosis",
          "type": "string"
        },
        {
          "indexed": false,
          "internalType": "string",
          "name": "prescription",
          "type": "string"
        },
        {
          "indexed": false,
          "internalType": "string",
          "name": "coronaryHeartDiseasePercentage",
          "type": "string"
        },
        {
          "indexed": false,
          "internalType": "string",
          "name": "coronaryArteryDiseaseRiskLevel",
          "type": "string"
        }
      ],
      "name": "EHRCreated",
      "type": "event"
    },
    {
      "inputs": [
        {
          "internalType": "string",
          "name": "_recordId",
          "type": "string"
        },
        {
          "internalType": "address",
          "name": "_patientWalletAddress",
          "type": "address"
        },
        {
          "internalType": "address",
          "name": "_doctorAddress",
          "type": "address"
        },
        {
          "internalType": "string",
          "name": "_gender",
          "type": "string"
        },
        {
          "internalType": "string",
          "name": "_diagnosis",
          "type": "string"
        },
        {
          "internalType": "string",
          "name": "_prescription",
          "type": "string"
        },
        {
          "internalType": "string",
          "name": "_coronaryHeartDiseasePercentage",
          "type": "string"
        },
        {
          "internalType": "string",
          "name": "_coronaryArteryDiseaseRiskLevel",
          "type": "string"
        }
      ],
      "name": "createEHR",
      "outputs": [],
      "stateMutability": "nonpayable",
      "type": "function"
    },
    {
      "inputs": [],
      "name": "getRecords",
      "outputs": [
        {
          "components": [
            {
              "internalType": "string",
              "name": "recordId",
              "type": "string"
            },
            {
              "internalType": "address",
              "name": "patientWalletAddress",
              "type": "address"
            },
            {
              "internalType": "address",
              "name": "doctorAddress",
              "type": "address"
            },
            {
              "internalType": "string",
              "name": "gender",
              "type": "string"
            },
            {
              "internalType": "string",
              "name": "diagnosis",
              "type": "string"
            },
            {
              "internalType": "string",
              "name": "prescription",
              "type": "string"
            },
            {
              "internalType": "string",
              "name": "coronaryHeartDiseasePercentage",
              "type": "string"
            },
            {
              "internalType": "string",
              "name": "coronaryArteryDiseaseRiskLevel",
              "type": "string"
            }
          ],
          "internalType": "struct DoctorForm.Record[]",
          "name": "",
          "type": "tuple[]"
        }
      ],
      "stateMutability": "view",
      "type": "function",
      "constant": true
    },
    {
      "inputs": [
        {
          "internalType": "address",
          "name": "_doctor",
          "type": "address"
        }
      ],
      "name": "getPatientRecordsByDoctor",
      "outputs": [
        {
          "components": [
            {
              "internalType": "string",
              "name": "recordId",
              "type": "string"
            },
            {
              "internalType": "address",
              "name": "patientWalletAddress",
              "type": "address"
            },
            {
              "internalType": "address",
              "name": "doctorAddress",
              "type": "address"
            },
            {
              "internalType": "string",
              "name": "gender",
              "type": "string"
            },
            {
              "internalType": "string",
              "name": "diagnosis",
              "type": "string"
            },
            {
              "internalType": "string",
              "name": "prescription",
              "type": "string"
            },
            {
              "internalType": "string",
              "name": "coronaryHeartDiseasePercentage",
              "type": "string"
            },
            {
              "internalType": "string",
              "name": "coronaryArteryDiseaseRiskLevel",
              "type": "string"
            }
          ],
          "internalType": "struct DoctorForm.Record[]",
          "name": "",
          "type": "tuple[]"
        }
      ],
      "stateMutability": "view",
      "type": "function",
      "constant": true
    }
  ],
  "bytecode": "0x608060405234801561001057600080fd5b506118d0806100206000396000f3fe608060405234801561001057600080fd5b50600436106100415760003560e01c80632043f6d1146100465780638eff3c2914610076578063ea23416514610094575b600080fd5b610060600480360381019061005b9190610da9565b6100b0565b60405161006d919061100a565b60405180910390f35b61007e610566565b60405161008b919061100a565b60405180910390f35b6100ae60048036038101906100a99190611161565b610a1a565b005b60606000808373ffffffffffffffffffffffffffffffffffffffff1673ffffffffffffffffffffffffffffffffffffffff168152602001908152602001600020805480602002602001604051908101604052809291908181526020016000905b8282101561055b578382906000526020600020906008020160405180610100016040529081600082018054610144906112ee565b80601f0160208091040260200160405190810160405280929190818152602001828054610170906112ee565b80156101bd5780601f10610192576101008083540402835291602001916101bd565b820191906000526020600020905b8154815290600101906020018083116101a057829003601f168201915b505050505081526020016001820160009054906101000a900473ffffffffffffffffffffffffffffffffffffffff1673ffffffffffffffffffffffffffffffffffffffff1673ffffffffffffffffffffffffffffffffffffffff1681526020016002820160009054906101000a900473ffffffffffffffffffffffffffffffffffffffff1673ffffffffffffffffffffffffffffffffffffffff1673ffffffffffffffffffffffffffffffffffffffff168152602001600382018054610282906112ee565b80601f01602080910402602001604051908101604052809291908181526020018280546102ae906112ee565b80156102fb5780601f106102d0576101008083540402835291602001916102fb565b820191906000526020600020905b8154815290600101906020018083116102de57829003601f168201915b50505050508152602001600482018054610314906112ee565b80601f0160208091040260200160405190810160405280929190818152602001828054610340906112ee565b801561038d5780601f106103625761010080835404028352916020019161038d565b820191906000526020600020905b81548152906001019060200180831161037057829003601f168201915b505050505081526020016005820180546103a6906112ee565b80601f01602080910402602001604051908101604052809291908181526020018280546103d2906112ee565b801561041f5780601f106103f45761010080835404028352916020019161041f565b820191906000526020600020905b81548152906001019060200180831161040257829003601f168201915b50505050508152602001600682018054610438906112ee565b80601f0160208091040260200160405190810160405280929190818152602001828054610464906112ee565b80156104b15780601f10610486576101008083540402835291602001916104b1565b820191906000526020600020905b81548152906001019060200180831161049457829003601f168201915b505050505081526020016007820180546104ca906112ee565b80601f01602080910402602001604051908101604052809291908181526020018280546104f6906112ee565b80156105435780601f1061051857610100808354040283529160200191610543565b820191906000526020600020905b81548152906001019060200180831161052657829003601f168201915b50505050508152505081526020019060010190610110565b505050509050919050565b60606000803373ffffffffffffffffffffffffffffffffffffffff1673ffffffffffffffffffffffffffffffffffffffff168152602001908152602001600020805480602002602001604051908101604052809291908181526020016000905b82821015610a115783829060005260206000209060080201604051806101000160405290816000820180546105fa906112ee565b80601f0160208091040260200160405190810160405280929190818152602001828054610626906112ee565b80156106735780601f1061064857610100808354040283529160200191610673565b820191906000526020600020905b81548152906001019060200180831161065657829003601f168201915b505050505081526020016001820160009054906101000a900473ffffffffffffffffffffffffffffffffffffffff1673ffffffffffffffffffffffffffffffffffffffff1673ffffffffffffffffffffffffffffffffffffffff1681526020016002820160009054906101000a900473ffffffffffffffffffffffffffffffffffffffff1673ffffffffffffffffffffffffffffffffffffffff1673ffffffffffffffffffffffffffffffffffffffff168152602001600382018054610738906112ee565b80601f0160208091040260200160405190810160405280929190818152602001828054610764906112ee565b80156107b15780601f10610786576101008083540402835291602001916107b1565b820191906000526020600020905b81548152906001019060200180831161079457829003601f168201915b505050505081526020016004820180546107ca906112ee565b80601f01602080910402602001604051908101604052809291908181526020018280546107f6906112ee565b80156108435780601f1061081857610100808354040283529160200191610843565b820191906000526020600020905b81548152906001019060200180831161082657829003601f168201915b5050505050815260200160058201805461085c906112ee565b80601f0160208091040260200160405190810160405280929190818152602001828054610888906112ee565b80156108d55780601f106108aa576101008083540402835291602001916108d5565b820191906000526020600020905b8154815290600101906020018083116108b857829003601f168201915b505050505081526020016006820180546108ee906112ee565b80601f016020809104026020016040519081016040528092919081815260200182805461091a906112ee565b80156109675780601f1061093c57610100808354040283529160200191610967565b820191906000526020600020905b81548152906001019060200180831161094a57829003601f168201915b50505050508152602001600782018054610980906112ee565b80601f01602080910402602001604051908101604052809291908181526020018280546109ac906112ee565b80156109f95780601f106109ce576101008083540402835291602001916109f9565b820191906000526020600020905b8154815290600101906020018083116109dc57829003601f168201915b505050505081525050815260200190600101906105c6565b50505050905090565b60008060003373ffffffffffffffffffffffffffffffffffffffff1673ffffffffffffffffffffffffffffffffffffffff168152602001908152602001600020905060005b8180549050811015610aff578980519060200120828281548110610a8657610a8561131f565b5b9060005260206000209060080201600001604051610aa491906113f1565b604051809103902003610aec576040517f08c379a0000000000000000000000000000000000000000000000000000000008152600401610ae39061148b565b60405180910390fd5b8080610af7906114e4565b915050610a5f565b5060006040518061010001604052808b81526020018a73ffffffffffffffffffffffffffffffffffffffff1681526020018973ffffffffffffffffffffffffffffffffffffffff1681526020018881526020018781526020018681526020018581526020018481525090506000803373ffffffffffffffffffffffffffffffffffffffff1673ffffffffffffffffffffffffffffffffffffffff1681526020019081526020016000208190806001815401808255809150506001900390600052602060002090600802016000909190919091506000820151816000019081610be791906116d8565b5060208201518160010160006101000a81548173ffffffffffffffffffffffffffffffffffffffff021916908373ffffffffffffffffffffffffffffffffffffffff16021790555060408201518160020160006101000a81548173ffffffffffffffffffffffffffffffffffffffff021916908373ffffffffffffffffffffffffffffffffffffffff1602179055506060820151816003019081610c8b91906116d8565b506080820151816004019081610ca191906116d8565b5060a0820151816005019081610cb791906116d8565b5060c0820151816006019081610ccd91906116d8565b5060e0820151816007019081610ce391906116d8565b5050507f6e88660b83e8386eebc4679e285cdbda854bfdf73532a2e012ade1046fe448b08a8a8a8a8a8a8a8a604051610d239897969594939291906117f2565b60405180910390a150505050505050505050565b6000604051905090565b600080fd5b600080fd5b600073ffffffffffffffffffffffffffffffffffffffff82169050919050565b6000610d7682610d4b565b9050919050565b610d8681610d6b565b8114610d9157600080fd5b50565b600081359050610da381610d7d565b92915050565b600060208284031215610dbf57610dbe610d41565b5b6000610dcd84828501610d94565b91505092915050565b600081519050919050565b600082825260208201905092915050565b6000819050602082019050919050565b600081519050919050565b600082825260208201905092915050565b60005b83811015610e3c578082015181840152602081019050610e21565b60008484015250505050565b6000601f19601f8301169050919050565b6000610e6482610e02565b610e6e8185610e0d565b9350610e7e818560208601610e1e565b610e8781610e48565b840191505092915050565b610e9b81610d6b565b82525050565b6000610100830160008301518482036000860152610ebf8282610e59565b9150506020830151610ed46020860182610e92565b506040830151610ee76040860182610e92565b5060608301518482036060860152610eff8282610e59565b91505060808301518482036080860152610f198282610e59565b91505060a083015184820360a0860152610f338282610e59565b91505060c083015184820360c0860152610f4d8282610e59565b91505060e083015184820360e0860152610f678282610e59565b9150508091505092915050565b6000610f808383610ea1565b905092915050565b6000602082019050919050565b6000610fa082610dd6565b610faa8185610de1565b935083602082028501610fbc85610df2565b8060005b85811015610ff85784840389528151610fd98582610f74565b9450610fe483610f88565b925060208a01995050600181019050610fc0565b50829750879550505050505092915050565b600060208201905081810360008301526110248184610f95565b905092915050565b600080fd5b600080fd5b7f4e487b7100000000000000000000000000000000000000000000000000000000600052604160045260246000fd5b61106e82610e48565b810181811067ffffffffffffffff8211171561108d5761108c611036565b5b80604052505050565b60006110a0610d37565b90506110ac8282611065565b919050565b600067ffffffffffffffff8211156110cc576110cb611036565b5b6110d582610e48565b9050602081019050919050565b82818337600083830152505050565b60006111046110ff846110b1565b611096565b9050828152602081018484840111156111205761111f611031565b5b61112b8482856110e2565b509392505050565b600082601f8301126111485761114761102c565b5b81356111588482602086016110f1565b91505092915050565b600080600080600080600080610100898b03121561118257611181610d41565b5b600089013567ffffffffffffffff8111156111a05761119f610d46565b5b6111ac8b828c01611133565b98505060206111bd8b828c01610d94565b97505060406111ce8b828c01610d94565b965050606089013567ffffffffffffffff8111156111ef576111ee610d46565b5b6111fb8b828c01611133565b955050608089013567ffffffffffffffff81111561121c5761121b610d46565b5b6112288b828c01611133565b94505060a089013567ffffffffffffffff81111561124957611248610d46565b5b6112558b828c01611133565b93505060c089013567ffffffffffffffff81111561127657611275610d46565b5b6112828b828c01611133565b92505060e089013567ffffffffffffffff8111156112a3576112a2610d46565b5b6112af8b828c01611133565b9150509295985092959890939650565b7f4e487b7100000000000000000000000000000000000000000000000000000000600052602260045260246000fd5b6000600282049050600182168061130657607f821691505b602082108103611319576113186112bf565b5b50919050565b7f4e487b7100000000000000000000000000000000000000000000000000000000600052603260045260246000fd5b600081905092915050565b60008190508160005260206000209050919050565b6000815461137b816112ee565b611385818661134e565b945060018216600081146113a057600181146113b5576113e8565b60ff19831686528115158202860193506113e8565b6113be85611359565b60005b838110156113e0578154818901526001820191506020810190506113c1565b838801955050505b50505092915050565b60006113fd828461136e565b915081905092915050565b600082825260208201905092915050565b7f5265636f72642077697468207468697320494420616c7265616479206578697360008201527f747320666f722074686520646f63746f722e0000000000000000000000000000602082015250565b6000611475603283611408565b915061148082611419565b604082019050919050565b600060208201905081810360008301526114a481611468565b9050919050565b7f4e487b7100000000000000000000000000000000000000000000000000000000600052601160045260246000fd5b6000819050919050565b60006114ef826114da565b91507fffffffffffffffffffffffffffffffffffffffffffffffffffffffffffffffff8203611521576115206114ab565b5b600182019050919050565b60008190508160005260206000209050919050565b60006020601f8301049050919050565b600082821b905092915050565b60006008830261158e7fffffffffffffffffffffffffffffffffffffffffffffffffffffffffffffffff82611551565b6115988683611551565b95508019841693508086168417925050509392505050565b6000819050919050565b60006115d56115d06115cb846114da565b6115b0565b6114da565b9050919050565b6000819050919050565b6115ef836115ba565b6116036115fb826115dc565b84845461155e565b825550505050565b600090565b61161861160b565b6116238184846115e6565b505050565b5b818110156116475761163c600082611610565b600181019050611629565b5050565b601f82111561168c5761165d8161152c565b61166684611541565b81016020851015611675578190505b61168961168185611541565b830182611628565b50505b505050565b600082821c905092915050565b60006116af60001984600802611691565b1980831691505092915050565b60006116c8838361169e565b9150826002028217905092915050565b6116e182610e02565b67ffffffffffffffff8111156116fa576116f9611036565b5b61170482546112ee565b61170f82828561164b565b600060209050601f8311600181146117425760008415611730578287015190505b61173a85826116bc565b8655506117a2565b601f1984166117508661152c565b60005b8281101561177857848901518255600182019150602085019450602081019050611753565b868310156117955784890151611791601f89168261169e565b8355505b6001600288020188555050505b505050505050565b60006117b582610e02565b6117bf8185611408565b93506117cf818560208601610e1e565b6117d881610e48565b840191505092915050565b6117ec81610d6b565b82525050565b600061010082019050818103600083015261180d818b6117aa565b905061181c602083018a6117e3565b61182960408301896117e3565b818103606083015261183b81886117aa565b9050818103608083015261184f81876117aa565b905081810360a083015261186381866117aa565b905081810360c083015261187781856117aa565b905081810360e083015261188b81846117aa565b9050999850505050505050505056fea264697066735822122087367b652205beef21cf09bf53a63beb45c7e7f52ee820627a4bf9ab28afc1ea64736f6c63430008130033",
  "immutableReferences": {},
  "source": "// SPDX-License-Identifier: MIT\r\npragma solidity ^0.8.19;\r\n\r\ncontract DoctorForm {\r\n    struct Record {\r\n        string recordId;\r\n        address patientWalletAddress;\r\n        address doctorAddress;\r\n        string gender;\r\n        string diagnosis;\r\n        string prescription;\r\n        string coronaryHeartDiseasePercentage;\r\n        string coronaryArteryDiseaseRiskLevel;\r\n    }\r\n\r\n    mapping(address => Record[]) private records;\r\n\r\n    event EHRCreated(\r\n        string recordId,\r\n        address patientWalletAddress,\r\n        address doctorAddress,\r\n        string gender,\r\n        string diagnosis,\r\n        string prescription,\r\n        string coronaryHeartDiseasePercentage,\r\n        string coronaryArteryDiseaseRiskLevel\r\n    );\r\n\r\n    function createEHR(\r\n        string memory _recordId,\r\n        address _patientWalletAddress,\r\n        address _doctorAddress,\r\n        string memory _gender,\r\n        string memory _diagnosis,\r\n        string memory _prescription,\r\n        string memory _coronaryHeartDiseasePercentage,\r\n        string memory _coronaryArteryDiseaseRiskLevel\r\n    ) public {\r\n        // Check if the record already exists for this doctor and record ID\r\n        Record[] storage doctorRecords = records[msg.sender];\r\n        for (uint i = 0; i < doctorRecords.length; i++) {\r\n            if (\r\n                keccak256(bytes(doctorRecords[i].recordId)) ==\r\n                keccak256(bytes(_recordId))\r\n            ) {\r\n                revert(\"Record with this ID already exists for the doctor.\");\r\n            }\r\n        }\r\n\r\n        Record memory newRecord = Record(\r\n            _recordId,\r\n            _patientWalletAddress,\r\n            _doctorAddress,\r\n            _gender,\r\n            _diagnosis,\r\n            _prescription,\r\n            _coronaryHeartDiseasePercentage,\r\n            _coronaryArteryDiseaseRiskLevel\r\n        );\r\n\r\n        records[msg.sender].push(newRecord);\r\n\r\n        emit EHRCreated(\r\n            _recordId,\r\n            _patientWalletAddress,\r\n            _doctorAddress,\r\n            _gender,\r\n            _diagnosis,\r\n            _prescription,\r\n            _coronaryHeartDiseasePercentage,\r\n            _coronaryArteryDiseaseRiskLevel\r\n        );\r\n    }\r\n\r\n    function getRecords() public view returns (Record[] memory) {\r\n        return records[msg.sender];\r\n    }\r\n\r\n    function getPatientRecordsByDoctor(\r\n        address _doctor\r\n    ) public view returns (Record[] memory) {\r\n        return records[_doctor];\r\n    }\r\n}\r\n",
  "sourcePath": "D:\\Patients Record Management\\Patients Record Management\\src\\contracts\\DoctorForm.sol",
  "compiler": {
    "name": "solc",
    "version": "0.8.19+commit.7dd6d404.Emscripten.clang"
  },
  "schemaVersion": "3.4.16",
  "updatedAt": "2025-04-15T01:31:27.101Z",
  "networkType": "ethereum",
  "devdoc": {
    "kind": "dev",
    "methods": {},
    "version": 1
  },
  "userdoc": {
    "kind": "user",
    "methods": {},
    "version": 1
  }
}