{
  "contractName": "PatientRegistration",
  "abi": [
    {
      "anonymous": false,
      "inputs": [
        {
          "indexed": false,
          "internalType": "string",
          "name": "hhNumber",
          "type": "string"
        },
        {
          "indexed": false,
          "internalType": "string",
          "name": "aiPrediction",
          "type": "string"
        },
        {
          "indexed": false,
          "internalType": "string",
          "name": "aiRiskLevel",
          "type": "string"
        }
      ],
      "name": "AIPredictionUpdated",
      "type": "event"
    },
    {
      "anonymous": false,
      "inputs": [
        {
          "indexed": false,
          "internalType": "string",
          "name": "hhNumber",
          "type": "string"
        },
        {
          "indexed": false,
          "internalType": "string",
          "name": "storedAIPrediction",
          "type": "string"
        },
        {
          "indexed": false,
          "internalType": "string",
          "name": "storedAIRiskLevel",
          "type": "string"
        }
      ],
      "name": "DebugAIPrediction",
      "type": "event"
    },
    {
      "anonymous": false,
      "inputs": [
        {
          "indexed": false,
          "internalType": "string",
          "name": "hhNumber",
          "type": "string"
        },
        {
          "indexed": false,
          "internalType": "string",
          "name": "name",
          "type": "string"
        },
        {
          "indexed": false,
          "internalType": "address",
          "name": "walletAddress",
          "type": "address"
        }
      ],
      "name": "PatientRegistered",
      "type": "event"
    },
    {
      "inputs": [
        {
          "internalType": "address",
          "name": "",
          "type": "address"
        }
      ],
      "name": "doctorDiagnosisData",
      "outputs": [
        {
          "internalType": "string",
          "name": "coronaryHeartDiseasePercentage",
          "type": "string"
        },
        {
          "internalType": "string",
          "name": "coronaryArteryDiseaseRiskLevel",
          "type": "string"
        }
      ],
      "stateMutability": "view",
      "type": "function",
      "constant": true
    },
    {
      "inputs": [
        {
          "internalType": "string",
          "name": "",
          "type": "string"
        },
        {
          "internalType": "string",
          "name": "",
          "type": "string"
        }
      ],
      "name": "doctorPermissions",
      "outputs": [
        {
          "internalType": "bool",
          "name": "",
          "type": "bool"
        }
      ],
      "stateMutability": "view",
      "type": "function",
      "constant": true
    },
    {
      "inputs": [
        {
          "internalType": "string",
          "name": "",
          "type": "string"
        }
      ],
      "name": "isPatientRegistered",
      "outputs": [
        {
          "internalType": "bool",
          "name": "",
          "type": "bool"
        }
      ],
      "stateMutability": "view",
      "type": "function",
      "constant": true
    },
    {
      "inputs": [
        {
          "internalType": "address",
          "name": "",
          "type": "address"
        }
      ],
      "name": "patientToDoctor",
      "outputs": [
        {
          "internalType": "address",
          "name": "",
          "type": "address"
        }
      ],
      "stateMutability": "view",
      "type": "function",
      "constant": true
    },
    {
      "inputs": [
        {
          "internalType": "string",
          "name": "",
          "type": "string"
        }
      ],
      "name": "patients",
      "outputs": [
        {
          "internalType": "address",
          "name": "walletAddress",
          "type": "address"
        },
        {
          "internalType": "string",
          "name": "name",
          "type": "string"
        },
        {
          "internalType": "string",
          "name": "dateOfBirth",
          "type": "string"
        },
        {
          "internalType": "string",
          "name": "gender",
          "type": "string"
        },
        {
          "internalType": "string",
          "name": "bloodGroup",
          "type": "string"
        },
        {
          "internalType": "string",
          "name": "homeAddress",
          "type": "string"
        },
        {
          "internalType": "string",
          "name": "email",
          "type": "string"
        },
        {
          "internalType": "string",
          "name": "hhNumber",
          "type": "string"
        },
        {
          "internalType": "string",
          "name": "password",
          "type": "string"
        },
        {
          "internalType": "string",
          "name": "coronaryHeartDiseasePercentage",
          "type": "string"
        },
        {
          "internalType": "string",
          "name": "coronaryArteryDiseaseRiskLevel",
          "type": "string"
        }
      ],
      "stateMutability": "view",
      "type": "function",
      "constant": true
    },
    {
      "inputs": [
        {
          "internalType": "address",
          "name": "_walletAddress",
          "type": "address"
        },
        {
          "internalType": "string",
          "name": "_name",
          "type": "string"
        },
        {
          "internalType": "string",
          "name": "_dateOfBirth",
          "type": "string"
        },
        {
          "internalType": "string",
          "name": "_gender",
          "type": "string"
        },
        {
          "internalType": "string",
          "name": "_bloodGroup",
          "type": "string"
        },
        {
          "internalType": "string",
          "name": "_homeAddress",
          "type": "string"
        },
        {
          "internalType": "string",
          "name": "_email",
          "type": "string"
        },
        {
          "internalType": "string",
          "name": "_hhNumber",
          "type": "string"
        },
        {
          "internalType": "string",
          "name": "_password",
          "type": "string"
        }
      ],
      "name": "registerPatient",
      "outputs": [],
      "stateMutability": "nonpayable",
      "type": "function"
    },
    {
      "inputs": [
        {
          "internalType": "string",
          "name": "_hhNumber",
          "type": "string"
        }
      ],
      "name": "isRegisteredPatient",
      "outputs": [
        {
          "internalType": "bool",
          "name": "",
          "type": "bool"
        }
      ],
      "stateMutability": "view",
      "type": "function",
      "constant": true
    },
    {
      "inputs": [
        {
          "internalType": "string",
          "name": "_hhNumber",
          "type": "string"
        },
        {
          "internalType": "string",
          "name": "_password",
          "type": "string"
        }
      ],
      "name": "validatePassword",
      "outputs": [
        {
          "internalType": "bool",
          "name": "",
          "type": "bool"
        }
      ],
      "stateMutability": "view",
      "type": "function",
      "constant": true
    },
    {
      "inputs": [
        {
          "internalType": "string",
          "name": "_hhNumber",
          "type": "string"
        },
        {
          "internalType": "string",
          "name": "_aiPrediction",
          "type": "string"
        },
        {
          "internalType": "string",
          "name": "_aiRiskLevel",
          "type": "string"
        }
      ],
      "name": "updateAIPrediction",
      "outputs": [],
      "stateMutability": "nonpayable",
      "type": "function"
    },
    {
      "inputs": [
        {
          "internalType": "string",
          "name": "_hhNumber",
          "type": "string"
        }
      ],
      "name": "getPatientDetails",
      "outputs": [
        {
          "internalType": "address",
          "name": "walletAddress",
          "type": "address"
        },
        {
          "internalType": "string",
          "name": "name",
          "type": "string"
        },
        {
          "internalType": "string",
          "name": "dateOfBirth",
          "type": "string"
        },
        {
          "internalType": "string",
          "name": "gender",
          "type": "string"
        },
        {
          "internalType": "string",
          "name": "bloodGroup",
          "type": "string"
        },
        {
          "internalType": "string",
          "name": "homeAddress",
          "type": "string"
        },
        {
          "internalType": "string",
          "name": "email",
          "type": "string"
        },
        {
          "internalType": "string",
          "name": "coronaryHeartDiseasePercentage",
          "type": "string"
        },
        {
          "internalType": "string",
          "name": "coronaryArteryDiseaseRiskLevel",
          "type": "string"
        }
      ],
      "stateMutability": "view",
      "type": "function",
      "constant": true
    },
    {
      "inputs": [
        {
          "internalType": "string",
          "name": "_patientNumber",
          "type": "string"
        },
        {
          "internalType": "string",
          "name": "_doctorNumber",
          "type": "string"
        }
      ],
      "name": "isPermissionGranted",
      "outputs": [
        {
          "internalType": "bool",
          "name": "",
          "type": "bool"
        }
      ],
      "stateMutability": "view",
      "type": "function",
      "constant": true
    },
    {
      "inputs": [
        {
          "internalType": "string",
          "name": "_hhNumber",
          "type": "string"
        }
      ],
      "name": "getPatientWallet",
      "outputs": [
        {
          "internalType": "address",
          "name": "",
          "type": "address"
        }
      ],
      "stateMutability": "view",
      "type": "function",
      "constant": true
    },
    {
      "inputs": [
        {
          "internalType": "string",
          "name": "_hhNumber",
          "type": "string"
        }
      ],
      "name": "getAIPrediction",
      "outputs": [
        {
          "internalType": "string",
          "name": "aiPrediction",
          "type": "string"
        },
        {
          "internalType": "string",
          "name": "aiRiskLevel",
          "type": "string"
        }
      ],
      "stateMutability": "view",
      "type": "function",
      "constant": true
    },
    {
      "inputs": [
        {
          "internalType": "string",
          "name": "_doctorNumber",
          "type": "string"
        }
      ],
      "name": "getPatientList",
      "outputs": [
        {
          "components": [
            {
              "internalType": "string",
              "name": "patient_number",
              "type": "string"
            },
            {
              "internalType": "string",
              "name": "patient_name",
              "type": "string"
            }
          ],
          "internalType": "struct PatientRegistration.PatientList[]",
          "name": "",
          "type": "tuple[]"
        }
      ],
      "stateMutability": "view",
      "type": "function",
      "constant": true
    },
    {
      "inputs": [
        {
          "internalType": "string",
          "name": "_hhNumber",
          "type": "string"
        },
        {
          "internalType": "string",
          "name": "_prediction",
          "type": "string"
        },
        {
          "internalType": "string",
          "name": "_riskLevel",
          "type": "string"
        }
      ],
      "name": "updateDoctorPrediction",
      "outputs": [],
      "stateMutability": "nonpayable",
      "type": "function"
    },
    {
      "inputs": [
        {
          "internalType": "address",
          "name": "_patientAddress",
          "type": "address"
        },
        {
          "internalType": "string",
          "name": "_percentage",
          "type": "string"
        },
        {
          "internalType": "string",
          "name": "_riskLevel",
          "type": "string"
        }
      ],
      "name": "updateDoctorPrediction",
      "outputs": [],
      "stateMutability": "nonpayable",
      "type": "function"
    },
    {
      "inputs": [
        {
          "internalType": "string",
          "name": "_hhNumber",
          "type": "string"
        }
      ],
      "name": "getDoctorPrediction",
      "outputs": [
        {
          "internalType": "string",
          "name": "prediction",
          "type": "string"
        },
        {
          "internalType": "string",
          "name": "riskLevel",
          "type": "string"
        }
      ],
      "stateMutability": "view",
      "type": "function",
      "constant": true
    },
    {
      "inputs": [
        {
          "internalType": "address",
          "name": "_doctor",
          "type": "address"
        }
      ],
      "name": "requestDoctor",
      "outputs": [],
      "stateMutability": "nonpayable",
      "type": "function"
    },
    {
      "inputs": [
        {
          "internalType": "address",
          "name": "_patient",
          "type": "address"
        }
      ],
      "name": "getAssignedDoctor",
      "outputs": [
        {
          "internalType": "address",
          "name": "",
          "type": "address"
        }
      ],
      "stateMutability": "view",
      "type": "function",
      "constant": true
    },
    {
      "inputs": [
        {
          "internalType": "address",
          "name": "_patient",
          "type": "address"
        }
      ],
      "name": "getDoctorDiagnosisData",
      "outputs": [
        {
          "internalType": "string",
          "name": "",
          "type": "string"
        },
        {
          "internalType": "string",
          "name": "",
          "type": "string"
        }
      ],
      "stateMutability": "view",
      "type": "function",
      "constant": true
    }
  ],
  "bytecode": "0x608060405234801561001057600080fd5b506134e1806100206000396000f3fe608060405234801561001057600080fd5b506004361061012c5760003560e01c806391c12f76116100ad578063d120c10c11610071578063d120c10c146103bf578063d9d51630146103ef578063da4422ae1461040b578063ea977fc81461043b578063f7252641146104735761012c565b806391c12f76146102d75780639272ad08146103075780639f52dbbe14610323578063a58690b114610354578063c6009d84146103855761012c565b806357812a08116100f457806357812a081461022357806377e53a091461023f5780637babdb261461026f57806382ea7c391461029f57806390d74350146102bb5761012c565b80631a8124b414610131578063403b62641461016157806344334733146101925780634b86b815146101c25780634f10c6c2146101f3575b600080fd5b61014b60048036038101906101469190612451565b6104a3565b604051610158919061248d565b60405180910390f35b61017b60048036038101906101769190612451565b6104d6565b604051610189929190612538565b60405180910390f35b6101ac60048036038101906101a791906126a4565b61065e565b6040516101b99190612737565b60405180910390f35b6101dc60048036038101906101d79190612752565b6106b9565b6040516101ea929190612538565b60405180910390f35b61020d60048036038101906102089190612752565b610884565b60405161021a9190612737565b60405180910390f35b61023d6004803603810190610238919061279b565b6108ba565b005b61025960048036038101906102549190612451565b610b6f565b604051610266919061248d565b60405180910390f35b610289600480360381019061028491906126a4565b610bd8565b6040516102969190612737565b60405180910390f35b6102b960048036038101906102b49190612945565b610cbc565b005b6102d560048036038101906102d09190612451565b610d84565b005b6102f160048036038101906102ec9190612752565b610e74565b6040516102fe9190612b3c565b60405180910390f35b610321600480360381019061031c9190612945565b611015565b005b61033d60048036038101906103389190612451565b61123c565b60405161034b929190612538565b60405180910390f35b61036e60048036038101906103699190612752565b611370565b60405161037c929190612538565b60405180910390f35b61039f600480360381019061039a9190612752565b61153b565b6040516103b69b9a99989796959493929190612b5e565b60405180910390f35b6103d960048036038101906103d491906126a4565b611b1b565b6040516103e69190612737565b60405180910390f35b61040960048036038101906104049190612c4f565b611b6d565b005b61042560048036038101906104209190612752565b611bf4565b604051610432919061248d565b60405180910390f35b61045560048036038101906104509190612752565b611caa565b60405161046a99989796959493929190612cda565b60405180910390f35b61048d60048036038101906104889190612752565b6123aa565b60405161049a9190612737565b60405180910390f35b60096020528060005260406000206000915054906101000a900473ffffffffffffffffffffffffffffffffffffffff1681565b60608060008060008573ffffffffffffffffffffffffffffffffffffffff1673ffffffffffffffffffffffffffffffffffffffff16815260200190815260200160002060405180604001604052908160008201805461053490612dce565b80601f016020809104026020016040519081016040528092919081815260200182805461056090612dce565b80156105ad5780601f10610582576101008083540402835291602001916105ad565b820191906000526020600020905b81548152906001019060200180831161059057829003601f168201915b505050505081526020016001820180546105c690612dce565b80601f01602080910402602001604051908101604052809291908181526020018280546105f290612dce565b801561063f5780601f106106145761010080835404028352916020019161063f565b820191906000526020600020905b81548152906001019060200180831161062257829003601f168201915b5050505050815250509050806000015181602001519250925050915091565b600482805160208101820180518482526020830160208501208183528095505050505050818051602081018201805184825260208301602085012081835280955050505050506000915091509054906101000a900460ff1681565b6060806001836040516106cc9190612e3b565b908152602001604051809103902060009054906101000a900460ff16610727576040517f08c379a000000000000000000000000000000000000000000000000000000000815260040161071e90612e9e565b60405180910390fd5b6007836040516107379190612e3b565b90815260200160405180910390206008846040516107559190612e3b565b908152602001604051809103902081805461076f90612dce565b80601f016020809104026020016040519081016040528092919081815260200182805461079b90612dce565b80156107e85780601f106107bd576101008083540402835291602001916107e8565b820191906000526020600020905b8154815290600101906020018083116107cb57829003601f168201915b505050505091508080546107fb90612dce565b80601f016020809104026020016040519081016040528092919081815260200182805461082790612dce565b80156108745780601f1061084957610100808354040283529160200191610874565b820191906000526020600020905b81548152906001019060200180831161085757829003601f168201915b5050505050905091509150915091565b6001818051602081018201805184825260208301602085012081835280955050505050506000915054906101000a900460ff1681565b6001826040516108ca9190612e3b565b908152602001604051809103902060009054906101000a900460ff1615610926576040517f08c379a000000000000000000000000000000000000000000000000000000000815260040161091d90612f0a565b60405180910390fd5b60006040518061016001604052808b73ffffffffffffffffffffffffffffffffffffffff1681526020018a8152602001898152602001888152602001878152602001868152602001858152602001848152602001838152602001604051806020016040528060008152508152602001604051806020016040528060008152508152509050806002846040516109bb9190612e3b565b908152602001604051809103902060008201518160000160006101000a81548173ffffffffffffffffffffffffffffffffffffffff021916908373ffffffffffffffffffffffffffffffffffffffff1602179055506020820151816001019081610a2591906130e0565b506040820151816002019081610a3b91906130e0565b506060820151816003019081610a5191906130e0565b506080820151816004019081610a6791906130e0565b5060a0820151816005019081610a7d91906130e0565b5060c0820151816006019081610a9391906130e0565b5060e0820151816007019081610aa991906130e0565b50610100820151816008019081610ac091906130e0565b50610120820151816009019081610ad791906130e0565b5061014082015181600a019081610aee91906130e0565b5090505060018084604051610b039190612e3b565b908152602001604051809103902060006101000a81548160ff0219169083151502179055507f319ae3a95b9a410d647835a7e64d54ddf28faf35a698f0a2b63999585fa38edc838a8c604051610b5b939291906131b2565b60405180910390a150505050505050505050565b6000600960008373ffffffffffffffffffffffffffffffffffffffff1673ffffffffffffffffffffffffffffffffffffffff16815260200190815260200160002060009054906101000a900473ffffffffffffffffffffffffffffffffffffffff169050919050565b6000600183604051610bea9190612e3b565b908152602001604051809103902060009054906101000a900460ff16610c45576040517f08c379a0000000000000000000000000000000000000000000000000000000008152600401610c3c90612e9e565b60405180910390fd5b600283604051610c559190612e3b565b9081526020016040518091039020600801604051602001610c76919061327a565b6040516020818303038152906040528051906020012082604051602001610c9d9190612e3b565b6040516020818303038152906040528051906020012014905092915050565b600183604051610ccc9190612e3b565b908152602001604051809103902060009054906101000a900460ff16610d27576040517f08c379a0000000000000000000000000000000000000000000000000000000008152600401610d1e90612e9e565b60405180910390fd5b81600784604051610d389190612e3b565b90815260200160405180910390209081610d5291906130e0565b5080600884604051610d649190612e3b565b90815260200160405180910390209081610d7e91906130e0565b50505050565b600073ffffffffffffffffffffffffffffffffffffffff168173ffffffffffffffffffffffffffffffffffffffff1603610df3576040517f08c379a0000000000000000000000000000000000000000000000000000000008152600401610dea906132dd565b60405180910390fd5b80600960003373ffffffffffffffffffffffffffffffffffffffff1673ffffffffffffffffffffffffffffffffffffffff16815260200190815260200160002060006101000a81548173ffffffffffffffffffffffffffffffffffffffff021916908373ffffffffffffffffffffffffffffffffffffffff16021790555050565b6060600382604051610e869190612e3b565b9081526020016040518091039020805480602002602001604051908101604052809291908181526020016000905b8282101561100a5783829060005260206000209060020201604051806040016040529081600082018054610ee790612dce565b80601f0160208091040260200160405190810160405280929190818152602001828054610f1390612dce565b8015610f605780601f10610f3557610100808354040283529160200191610f60565b820191906000526020600020905b815481529060010190602001808311610f4357829003601f168201915b50505050508152602001600182018054610f7990612dce565b80601f0160208091040260200160405190810160405280929190818152602001828054610fa590612dce565b8015610ff25780601f10610fc757610100808354040283529160200191610ff2565b820191906000526020600020905b815481529060010190602001808311610fd557829003601f168201915b50505050508152505081526020019060010190610eb4565b505050509050919050565b6001836040516110259190612e3b565b908152602001604051809103902060009054906101000a900460ff16611080576040517f08c379a000000000000000000000000000000000000000000000000000000000815260040161107790612e9e565b60405180910390fd5b6002836040516110909190612e3b565b908152602001604051809103902060000160009054906101000a900473ffffffffffffffffffffffffffffffffffffffff1673ffffffffffffffffffffffffffffffffffffffff163373ffffffffffffffffffffffffffffffffffffffff161461112f576040517f08c379a00000000000000000000000000000000000000000000000000000000081526004016111269061336f565b60405180910390fd5b816005846040516111409190612e3b565b9081526020016040518091039020908161115a91906130e0565b508060068460405161116c9190612e3b565b9081526020016040518091039020908161118691906130e0565b507fe3bbd813d818cde74e933b0d96effb81a81c12b0f50d34c08741ef95ca3401488383836040516111ba9392919061338f565b60405180910390a17f5cddcdec06c8129b1f9c895efe8d2164053815e1623408f14e412dc1c6984947836005856040516111f49190612e3b565b90815260200160405180910390206006866040516112129190612e3b565b908152602001604051809103902060405161122f9392919061345f565b60405180910390a1505050565b600060205280600052604060002060009150905080600001805461125f90612dce565b80601f016020809104026020016040519081016040528092919081815260200182805461128b90612dce565b80156112d85780601f106112ad576101008083540402835291602001916112d8565b820191906000526020600020905b8154815290600101906020018083116112bb57829003601f168201915b5050505050908060010180546112ed90612dce565b80601f016020809104026020016040519081016040528092919081815260200182805461131990612dce565b80156113665780601f1061133b57610100808354040283529160200191611366565b820191906000526020600020905b81548152906001019060200180831161134957829003601f168201915b5050505050905082565b6060806001836040516113839190612e3b565b908152602001604051809103902060009054906101000a900460ff166113de576040517f08c379a00000000000000000000000000000000000000000000000000000000081526004016113d590612e9e565b60405180910390fd5b6005836040516113ee9190612e3b565b908152602001604051809103902060068460405161140c9190612e3b565b908152602001604051809103902081805461142690612dce565b80601f016020809104026020016040519081016040528092919081815260200182805461145290612dce565b801561149f5780601f106114745761010080835404028352916020019161149f565b820191906000526020600020905b81548152906001019060200180831161148257829003601f168201915b505050505091508080546114b290612dce565b80601f01602080910402602001604051908101604052809291908181526020018280546114de90612dce565b801561152b5780601f106115005761010080835404028352916020019161152b565b820191906000526020600020905b81548152906001019060200180831161150e57829003601f168201915b5050505050905091509150915091565b6002818051602081018201805184825260208301602085012081835280955050505050506000915090508060000160009054906101000a900473ffffffffffffffffffffffffffffffffffffffff169080600101805461159a90612dce565b80601f01602080910402602001604051908101604052809291908181526020018280546115c690612dce565b80156116135780601f106115e857610100808354040283529160200191611613565b820191906000526020600020905b8154815290600101906020018083116115f657829003601f168201915b50505050509080600201805461162890612dce565b80601f016020809104026020016040519081016040528092919081815260200182805461165490612dce565b80156116a15780601f10611676576101008083540402835291602001916116a1565b820191906000526020600020905b81548152906001019060200180831161168457829003601f168201915b5050505050908060030180546116b690612dce565b80601f01602080910402602001604051908101604052809291908181526020018280546116e290612dce565b801561172f5780601f106117045761010080835404028352916020019161172f565b820191906000526020600020905b81548152906001019060200180831161171257829003601f168201915b50505050509080600401805461174490612dce565b80601f016020809104026020016040519081016040528092919081815260200182805461177090612dce565b80156117bd5780601f10611792576101008083540402835291602001916117bd565b820191906000526020600020905b8154815290600101906020018083116117a057829003601f168201915b5050505050908060050180546117d290612dce565b80601f01602080910402602001604051908101604052809291908181526020018280546117fe90612dce565b801561184b5780601f106118205761010080835404028352916020019161184b565b820191906000526020600020905b81548152906001019060200180831161182e57829003601f168201915b50505050509080600601805461186090612dce565b80601f016020809104026020016040519081016040528092919081815260200182805461188c90612dce565b80156118d95780601f106118ae576101008083540402835291602001916118d9565b820191906000526020600020905b8154815290600101906020018083116118bc57829003601f168201915b5050505050908060070180546118ee90612dce565b80601f016020809104026020016040519081016040528092919081815260200182805461191a90612dce565b80156119675780601f1061193c57610100808354040283529160200191611967565b820191906000526020600020905b81548152906001019060200180831161194a57829003601f168201915b50505050509080600801805461197c90612dce565b80601f01602080910402602001604051908101604052809291908181526020018280546119a890612dce565b80156119f55780601f106119ca576101008083540402835291602001916119f5565b820191906000526020600020905b8154815290600101906020018083116119d857829003601f168201915b505050505090806009018054611a0a90612dce565b80601f0160208091040260200160405190810160405280929190818152602001828054611a3690612dce565b8015611a835780601f10611a5857610100808354040283529160200191611a83565b820191906000526020600020905b815481529060010190602001808311611a6657829003601f168201915b50505050509080600a018054611a9890612dce565b80601f0160208091040260200160405190810160405280929190818152602001828054611ac490612dce565b8015611b115780601f10611ae657610100808354040283529160200191611b11565b820191906000526020600020905b815481529060010190602001808311611af457829003601f168201915b505050505090508b565b6000600483604051611b2d9190612e3b565b908152602001604051809103902082604051611b499190612e3b565b908152602001604051809103902060009054906101000a900460ff16905092915050565b6040518060400160405280838152602001828152506000808573ffffffffffffffffffffffffffffffffffffffff1673ffffffffffffffffffffffffffffffffffffffff1681526020019081526020016000206000820151816000019081611bd591906130e0565b506020820151816001019081611beb91906130e0565b50905050505050565b6000600182604051611c069190612e3b565b908152602001604051809103902060009054906101000a900460ff16611c61576040517f08c379a0000000000000000000000000000000000000000000000000000000008152600401611c5890612e9e565b60405180910390fd5b600282604051611c719190612e3b565b908152602001604051809103902060000160009054906101000a900473ffffffffffffffffffffffffffffffffffffffff169050919050565b600060608060608060608060608060018a604051611cc89190612e3b565b908152602001604051809103902060009054906101000a900460ff16611d23576040517f08c379a0000000000000000000000000000000000000000000000000000000008152600401611d1a90612e9e565b60405180910390fd5b600060028b604051611d359190612e3b565b9081526020016040518091039020604051806101600160405290816000820160009054906101000a900473ffffffffffffffffffffffffffffffffffffffff1673ffffffffffffffffffffffffffffffffffffffff1673ffffffffffffffffffffffffffffffffffffffff168152602001600182018054611db590612dce565b80601f0160208091040260200160405190810160405280929190818152602001828054611de190612dce565b8015611e2e5780601f10611e0357610100808354040283529160200191611e2e565b820191906000526020600020905b815481529060010190602001808311611e1157829003601f168201915b50505050508152602001600282018054611e4790612dce565b80601f0160208091040260200160405190810160405280929190818152602001828054611e7390612dce565b8015611ec05780601f10611e9557610100808354040283529160200191611ec0565b820191906000526020600020905b815481529060010190602001808311611ea357829003601f168201915b50505050508152602001600382018054611ed990612dce565b80601f0160208091040260200160405190810160405280929190818152602001828054611f0590612dce565b8015611f525780601f10611f2757610100808354040283529160200191611f52565b820191906000526020600020905b815481529060010190602001808311611f3557829003601f168201915b50505050508152602001600482018054611f6b90612dce565b80601f0160208091040260200160405190810160405280929190818152602001828054611f9790612dce565b8015611fe45780601f10611fb957610100808354040283529160200191611fe4565b820191906000526020600020905b815481529060010190602001808311611fc757829003601f168201915b50505050508152602001600582018054611ffd90612dce565b80601f016020809104026020016040519081016040528092919081815260200182805461202990612dce565b80156120765780601f1061204b57610100808354040283529160200191612076565b820191906000526020600020905b81548152906001019060200180831161205957829003601f168201915b5050505050815260200160068201805461208f90612dce565b80601f01602080910402602001604051908101604052809291908181526020018280546120bb90612dce565b80156121085780601f106120dd57610100808354040283529160200191612108565b820191906000526020600020905b8154815290600101906020018083116120eb57829003601f168201915b5050505050815260200160078201805461212190612dce565b80601f016020809104026020016040519081016040528092919081815260200182805461214d90612dce565b801561219a5780601f1061216f5761010080835404028352916020019161219a565b820191906000526020600020905b81548152906001019060200180831161217d57829003601f168201915b505050505081526020016008820180546121b390612dce565b80601f01602080910402602001604051908101604052809291908181526020018280546121df90612dce565b801561222c5780601f106122015761010080835404028352916020019161222c565b820191906000526020600020905b81548152906001019060200180831161220f57829003601f168201915b5050505050815260200160098201805461224590612dce565b80601f016020809104026020016040519081016040528092919081815260200182805461227190612dce565b80156122be5780601f10612293576101008083540402835291602001916122be565b820191906000526020600020905b8154815290600101906020018083116122a157829003601f168201915b50505050508152602001600a820180546122d790612dce565b80601f016020809104026020016040519081016040528092919081815260200182805461230390612dce565b80156123505780601f1061232557610100808354040283529160200191612350565b820191906000526020600020905b81548152906001019060200180831161233357829003601f168201915b5050505050815250509050806000015181602001518260400151836060015184608001518560a001518660c00151876101200151886101400151995099509950995099509950995099509950509193959799909294969850565b60006001826040516123bc9190612e3b565b908152602001604051809103902060009054906101000a900460ff169050919050565b6000604051905090565b600080fd5b600080fd5b600073ffffffffffffffffffffffffffffffffffffffff82169050919050565b600061241e826123f3565b9050919050565b61242e81612413565b811461243957600080fd5b50565b60008135905061244b81612425565b92915050565b600060208284031215612467576124666123e9565b5b60006124758482850161243c565b91505092915050565b61248781612413565b82525050565b60006020820190506124a2600083018461247e565b92915050565b600081519050919050565b600082825260208201905092915050565b60005b838110156124e25780820151818401526020810190506124c7565b60008484015250505050565b6000601f19601f8301169050919050565b600061250a826124a8565b61251481856124b3565b93506125248185602086016124c4565b61252d816124ee565b840191505092915050565b6000604082019050818103600083015261255281856124ff565b9050818103602083015261256681846124ff565b90509392505050565b600080fd5b600080fd5b7f4e487b7100000000000000000000000000000000000000000000000000000000600052604160045260246000fd5b6125b1826124ee565b810181811067ffffffffffffffff821117156125d0576125cf612579565b5b80604052505050565b60006125e36123df565b90506125ef82826125a8565b919050565b600067ffffffffffffffff82111561260f5761260e612579565b5b612618826124ee565b9050602081019050919050565b82818337600083830152505050565b6000612647612642846125f4565b6125d9565b90508281526020810184848401111561266357612662612574565b5b61266e848285612625565b509392505050565b600082601f83011261268b5761268a61256f565b5b813561269b848260208601612634565b91505092915050565b600080604083850312156126bb576126ba6123e9565b5b600083013567ffffffffffffffff8111156126d9576126d86123ee565b5b6126e585828601612676565b925050602083013567ffffffffffffffff811115612706576127056123ee565b5b61271285828601612676565b9150509250929050565b60008115159050919050565b6127318161271c565b82525050565b600060208201905061274c6000830184612728565b92915050565b600060208284031215612768576127676123e9565b5b600082013567ffffffffffffffff811115612786576127856123ee565b5b61279284828501612676565b91505092915050565b60008060008060008060008060006101208a8c0312156127be576127bd6123e9565b5b60006127cc8c828d0161243c565b99505060208a013567ffffffffffffffff8111156127ed576127ec6123ee565b5b6127f98c828d01612676565b98505060408a013567ffffffffffffffff81111561281a576128196123ee565b5b6128268c828d01612676565b97505060608a013567ffffffffffffffff811115612847576128466123ee565b5b6128538c828d01612676565b96505060808a013567ffffffffffffffff811115612874576128736123ee565b5b6128808c828d01612676565b95505060a08a013567ffffffffffffffff8111156128a1576128a06123ee565b5b6128ad8c828d01612676565b94505060c08a013567ffffffffffffffff8111156128ce576128cd6123ee565b5b6128da8c828d01612676565b93505060e08a013567ffffffffffffffff8111156128fb576128fa6123ee565b5b6129078c828d01612676565b9250506101008a013567ffffffffffffffff811115612929576129286123ee565b5b6129358c828d01612676565b9150509295985092959850929598565b60008060006060848603121561295e5761295d6123e9565b5b600084013567ffffffffffffffff81111561297c5761297b6123ee565b5b61298886828701612676565b935050602084013567ffffffffffffffff8111156129a9576129a86123ee565b5b6129b586828701612676565b925050604084013567ffffffffffffffff8111156129d6576129d56123ee565b5b6129e286828701612676565b9150509250925092565b600081519050919050565b600082825260208201905092915050565b6000819050602082019050919050565b600082825260208201905092915050565b6000612a34826124a8565b612a3e8185612a18565b9350612a4e8185602086016124c4565b612a57816124ee565b840191505092915050565b60006040830160008301518482036000860152612a7f8282612a29565b91505060208301518482036020860152612a998282612a29565b9150508091505092915050565b6000612ab28383612a62565b905092915050565b6000602082019050919050565b6000612ad2826129ec565b612adc81856129f7565b935083602082028501612aee85612a08565b8060005b85811015612b2a5784840389528151612b0b8582612aa6565b9450612b1683612aba565b925060208a01995050600181019050612af2565b50829750879550505050505092915050565b60006020820190508181036000830152612b568184612ac7565b905092915050565b600061016082019050612b74600083018e61247e565b8181036020830152612b86818d6124ff565b90508181036040830152612b9a818c6124ff565b90508181036060830152612bae818b6124ff565b90508181036080830152612bc2818a6124ff565b905081810360a0830152612bd681896124ff565b905081810360c0830152612bea81886124ff565b905081810360e0830152612bfe81876124ff565b9050818103610100830152612c1381866124ff565b9050818103610120830152612c2881856124ff565b9050818103610140830152612c3d81846124ff565b90509c9b505050505050505050505050565b600080600060608486031215612c6857612c676123e9565b5b6000612c768682870161243c565b935050602084013567ffffffffffffffff811115612c9757612c966123ee565b5b612ca386828701612676565b925050604084013567ffffffffffffffff811115612cc457612cc36123ee565b5b612cd086828701612676565b9150509250925092565b600061012082019050612cf0600083018c61247e565b8181036020830152612d02818b6124ff565b90508181036040830152612d16818a6124ff565b90508181036060830152612d2a81896124ff565b90508181036080830152612d3e81886124ff565b905081810360a0830152612d5281876124ff565b905081810360c0830152612d6681866124ff565b905081810360e0830152612d7a81856124ff565b9050818103610100830152612d8f81846124ff565b90509a9950505050505050505050565b7f4e487b7100000000000000000000000000000000000000000000000000000000600052602260045260246000fd5b60006002820490506001821680612de657607f821691505b602082108103612df957612df8612d9f565b5b50919050565b600081905092915050565b6000612e15826124a8565b612e1f8185612dff565b9350612e2f8185602086016124c4565b80840191505092915050565b6000612e478284612e0a565b915081905092915050565b7f50617469656e74206e6f74207265676973746572656400000000000000000000600082015250565b6000612e886016836124b3565b9150612e9382612e52565b602082019050919050565b60006020820190508181036000830152612eb781612e7b565b9050919050565b7f50617469656e7420616c72656164792072656769737465726564000000000000600082015250565b6000612ef4601a836124b3565b9150612eff82612ebe565b602082019050919050565b60006020820190508181036000830152612f2381612ee7565b9050919050565b60008190508160005260206000209050919050565b60006020601f8301049050919050565b600082821b905092915050565b600060088302612f8c7fffffffffffffffffffffffffffffffffffffffffffffffffffffffffffffffff82612f4f565b612f968683612f4f565b95508019841693508086168417925050509392505050565b6000819050919050565b6000819050919050565b6000612fdd612fd8612fd384612fae565b612fb8565b612fae565b9050919050565b6000819050919050565b612ff783612fc2565b61300b61300382612fe4565b848454612f5c565b825550505050565b600090565b613020613013565b61302b818484612fee565b505050565b5b8181101561304f57613044600082613018565b600181019050613031565b5050565b601f8211156130945761306581612f2a565b61306e84612f3f565b8101602085101561307d578190505b61309161308985612f3f565b830182613030565b50505b505050565b600082821c905092915050565b60006130b760001984600802613099565b1980831691505092915050565b60006130d083836130a6565b9150826002028217905092915050565b6130e9826124a8565b67ffffffffffffffff81111561310257613101612579565b5b61310c8254612dce565b613117828285613053565b600060209050601f83116001811461314a5760008415613138578287015190505b61314285826130c4565b8655506131aa565b601f19841661315886612f2a565b60005b828110156131805784890151825560018201915060208501945060208101905061315b565b8683101561319d5784890151613199601f8916826130a6565b8355505b6001600288020188555050505b505050505050565b600060608201905081810360008301526131cc81866124ff565b905081810360208301526131e081856124ff565b90506131ef604083018461247e565b949350505050565b6000815461320481612dce565b61320e8186612dff565b94506001821660008114613229576001811461323e57613271565b60ff1983168652811515820286019350613271565b61324785612f2a565b60005b838110156132695781548189015260018201915060208101905061324a565b838801955050505b50505092915050565b600061328682846131f7565b915081905092915050565b7f496e76616c696420646f63746f72206164647265737300000000000000000000600082015250565b60006132c76016836124b3565b91506132d282613291565b602082019050919050565b600060208201905081810360008301526132f6816132ba565b9050919050565b7f556e617574686f72697a65643a204f6e6c79207468652072656769737465726560008201527f642070617469656e742063616e2075706461746520746869732e000000000000602082015250565b6000613359603a836124b3565b9150613364826132fd565b604082019050919050565b600060208201905081810360008301526133888161334c565b9050919050565b600060608201905081810360008301526133a981866124ff565b905081810360208301526133bd81856124ff565b905081810360408301526133d181846124ff565b9050949350505050565b600081546133e881612dce565b6133f281866124b3565b9450600182166000811461340d576001811461342357613456565b60ff198316865281151560200286019350613456565b61342c85612f2a565b60005b8381101561344e5781548189015260018201915060208101905061342f565b808801955050505b50505092915050565b6000606082019050818103600083015261347981866124ff565b9050818103602083015261348d81856133db565b905081810360408301526134a181846133db565b905094935050505056fea26469706673582212209b038c8c4fc579a46987b2740b784d933feba395f7c004a67daf1d6728ca48df64736f6c63430008130033",
  "immutableReferences": {},
  "source": "// SPDX-License-Identifier: MIT\r\npragma solidity ^0.8.19;\r\n\r\ncontract PatientRegistration {\r\n    struct Patient {\r\n        address walletAddress;\r\n        string name;\r\n        string dateOfBirth;\r\n        string gender;\r\n        string bloodGroup;\r\n        string homeAddress;\r\n        string email;\r\n        string hhNumber;\r\n        string password;\r\n        // ADD THESE FOR DOCTOR FORM INPUT\r\n        string coronaryHeartDiseasePercentage;\r\n        string coronaryArteryDiseaseRiskLevel;\r\n    }\r\n\r\n    // Define PatientList struct to store doctor permissions correctly\r\n    struct PatientList {\r\n        string patient_number;\r\n        string patient_name;\r\n    }\r\n    // Add inside PatientRegistration.sol\r\n\r\n    struct DoctorDiagnosis {\r\n        string coronaryHeartDiseasePercentage;\r\n        string coronaryArteryDiseaseRiskLevel;\r\n    }\r\n\r\n    mapping(address => DoctorDiagnosis) public doctorDiagnosisData;\r\n\r\n    function updateDoctorPrediction(\r\n        address _patientAddress,\r\n        string memory _percentage,\r\n        string memory _riskLevel\r\n    ) public {\r\n        doctorDiagnosisData[_patientAddress] = DoctorDiagnosis(\r\n            _percentage,\r\n            _riskLevel\r\n        );\r\n    }\r\n\r\n    mapping(string => bool) public isPatientRegistered;\r\n    mapping(string => Patient) public patients;\r\n    mapping(string => PatientList[]) private Dpermission;\r\n    mapping(string => mapping(string => bool)) public doctorPermissions;\r\n    mapping(string => string) private aiPredictions; // Store AI Prediction separately\r\n    mapping(string => string) private aiRiskLevels; // Store Risk Level separately\r\n\r\n    mapping(string => string) private doctorPredictions;\r\n    mapping(string => string) private doctorRiskLevels;\r\n    mapping(address => address) public patientToDoctor;\r\n\r\n    event PatientRegistered(\r\n        string hhNumber,\r\n        string name,\r\n        address walletAddress\r\n    );\r\n    event AIPredictionUpdated(\r\n        string hhNumber,\r\n        string aiPrediction,\r\n        string aiRiskLevel\r\n    );\r\n\r\n    event DebugAIPrediction(\r\n    string hhNumber,\r\n    string storedAIPrediction,\r\n    string storedAIRiskLevel\r\n    );\r\n\r\n\r\n    function registerPatient(\r\n        address _walletAddress,\r\n        string memory _name,\r\n        string memory _dateOfBirth,\r\n        string memory _gender,\r\n        string memory _bloodGroup,\r\n        string memory _homeAddress,\r\n        string memory _email,\r\n        string memory _hhNumber,\r\n        string memory _password\r\n    ) external {\r\n        require(!isPatientRegistered[_hhNumber], \"Patient already registered\");\r\n\r\n        Patient memory newPatient = Patient({\r\n            walletAddress: _walletAddress,\r\n            name: _name,\r\n            dateOfBirth: _dateOfBirth,\r\n            gender: _gender,\r\n            bloodGroup: _bloodGroup,\r\n            homeAddress: _homeAddress,\r\n            email: _email,\r\n            hhNumber: _hhNumber,\r\n            password: _password, // Store password in the struct\r\n            coronaryHeartDiseasePercentage: \"\", // initially empty\r\n            coronaryArteryDiseaseRiskLevel: \"\" // initially empty\r\n        });\r\n\r\n        patients[_hhNumber] = newPatient;\r\n        isPatientRegistered[_hhNumber] = true;\r\n        emit PatientRegistered(_hhNumber, _name, _walletAddress);\r\n    }\r\n\r\n    function isRegisteredPatient(\r\n        string memory _hhNumber\r\n    ) external view returns (bool) {\r\n        return isPatientRegistered[_hhNumber];\r\n    }\r\n\r\n    // Add a function to validate patient's password\r\n    function validatePassword(\r\n        string memory _hhNumber,\r\n        string memory _password\r\n    ) external view returns (bool) {\r\n        require(isPatientRegistered[_hhNumber], \"Patient not registered\");\r\n        return\r\n            keccak256(abi.encodePacked(_password)) ==\r\n            keccak256(abi.encodePacked(patients[_hhNumber].password));\r\n    }\r\n\r\n    function updateAIPrediction(\r\n        string memory _hhNumber,\r\n        string memory _aiPrediction,\r\n        string memory _aiRiskLevel\r\n    ) external {\r\n        require(isPatientRegistered[_hhNumber], \"Patient not registered\");\r\n\r\n        //  Ensure the sender (msg.sender) is the registered patient\r\n        require(\r\n            msg.sender == patients[_hhNumber].walletAddress,\r\n            \"Unauthorized: Only the registered patient can update this.\"\r\n        );\r\n\r\n        // Set the predictions\r\n        aiPredictions[_hhNumber] = _aiPrediction;\r\n        aiRiskLevels[_hhNumber] = _aiRiskLevel;\r\n\r\n        // Emit the existing event\r\n        emit AIPredictionUpdated(_hhNumber, _aiPrediction, _aiRiskLevel);\r\n\r\n        // Emit extra debug information\r\n        emit DebugAIPrediction(_hhNumber, aiPredictions[_hhNumber], aiRiskLevels[_hhNumber]);\r\n    }\r\n\r\n    function getPatientDetails(\r\n        string memory _hhNumber\r\n    )\r\n        external\r\n        view\r\n        returns (\r\n            address walletAddress,\r\n            string memory name,\r\n            string memory dateOfBirth,\r\n            string memory gender,\r\n            string memory bloodGroup,\r\n            string memory homeAddress,\r\n            string memory email,\r\n            string memory coronaryHeartDiseasePercentage,\r\n            string memory coronaryArteryDiseaseRiskLevel\r\n        )\r\n    {\r\n        require(isPatientRegistered[_hhNumber], \"Patient not registered\");\r\n        Patient memory patient = patients[_hhNumber];\r\n        return (\r\n            patient.walletAddress,\r\n            patient.name,\r\n            patient.dateOfBirth,\r\n            patient.gender,\r\n            patient.bloodGroup,\r\n            patient.homeAddress,\r\n            patient.email,\r\n            patient.coronaryHeartDiseasePercentage,\r\n            patient.coronaryArteryDiseaseRiskLevel\r\n        );\r\n    }\r\n\r\n    function isPermissionGranted(\r\n        string memory _patientNumber,\r\n        string memory _doctorNumber\r\n    ) external view returns (bool) {\r\n        return doctorPermissions[_patientNumber][_doctorNumber];\r\n    }\r\n\r\n    function getPatientWallet(\r\n        string memory _hhNumber\r\n    ) public view returns (address) {\r\n        require(isPatientRegistered[_hhNumber], \"Patient not registered\");\r\n        return (\r\n            // patients[_hhNumber].name,\r\n            // patients[_hhNumber].gender,\r\n            patients[_hhNumber].walletAddress //  Ensure this returns an Ethereum address\r\n        );\r\n    }\r\n\r\n    function getAIPrediction(\r\n        string memory _hhNumber\r\n    )\r\n        external\r\n        view\r\n        returns (string memory aiPrediction, string memory aiRiskLevel)\r\n    {\r\n        require(isPatientRegistered[_hhNumber], \"Patient not registered\");\r\n        return (aiPredictions[_hhNumber], aiRiskLevels[_hhNumber]);\r\n    }\r\n\r\n    function getPatientList(\r\n        string memory _doctorNumber\r\n    ) public view returns (PatientList[] memory) {\r\n        return Dpermission[_doctorNumber];\r\n    }\r\n\r\n    function updateDoctorPrediction(\r\n        string memory _hhNumber,\r\n        string memory _prediction,\r\n        string memory _riskLevel\r\n    ) external {\r\n        require(isPatientRegistered[_hhNumber], \"Patient not registered\");\r\n        // Only doctor can update (optional: add check if msg.sender is a doctor)\r\n        doctorPredictions[_hhNumber] = _prediction;\r\n        doctorRiskLevels[_hhNumber] = _riskLevel;\r\n    }\r\n\r\n    function getDoctorPrediction(\r\n        string memory _hhNumber\r\n    )\r\n        external\r\n        view\r\n        returns (string memory prediction, string memory riskLevel)\r\n    {\r\n        require(isPatientRegistered[_hhNumber], \"Patient not registered\");\r\n        return (doctorPredictions[_hhNumber], doctorRiskLevels[_hhNumber]);\r\n    }\r\n\r\n    function requestDoctor(address _doctor) external {\r\n        require(_doctor != address(0), \"Invalid doctor address\");\r\n        patientToDoctor[msg.sender] = _doctor;\r\n    }\r\n\r\n    function getAssignedDoctor(\r\n        address _patient\r\n    ) external view returns (address) {\r\n        return patientToDoctor[_patient];\r\n    }\r\n\r\n    function getDoctorDiagnosisData(address _patient) external view returns (string memory, string memory) {\r\n    DoctorDiagnosis memory d = doctorDiagnosisData[_patient];\r\n    return (d.coronaryHeartDiseasePercentage, d.coronaryArteryDiseaseRiskLevel);\r\n}\r\n\r\n}\r\n",
  "sourcePath": "D:\\Patients Record Management\\Patients Record Management\\src\\contracts\\PatientRegistration.sol",
  "compiler": {
    "name": "solc",
    "version": "0.8.19+commit.7dd6d404.Emscripten.clang"
  },
  "schemaVersion": "3.4.16",
  "updatedAt": "2025-04-15T01:31:25.635Z",
  "networkType": "ethereum",
  "devdoc": {
    "kind": "dev",
    "methods": {},
    "version": 1
  },
  "userdoc": {
    "kind": "user",
    "methods": {},
    "version": 1
  }
}