{
  "contractName": "UploadEhr",
  "abi": [
    {
      "anonymous": false,
      "inputs": [
        {
          "indexed": true,
          "internalType": "address",
          "name": "patient",
          "type": "address"
        },
        {
          "indexed": true,
          "internalType": "address",
          "name": "creator",
          "type": "address"
        },
        {
          "indexed": false,
          "internalType": "string",
          "name": "timeStamp",
          "type": "string"
        },
        {
          "indexed": false,
          "internalType": "string",
          "name": "medicalRecordHash",
          "type": "string"
        }
      ],
      "name": "RecordAdded",
      "type": "event"
    },
    {
      "inputs": [
        {
          "internalType": "address",
          "name": "_patient",
          "type": "address"
        },
        {
          "internalType": "string",
          "name": "_timeStamp",
          "type": "string"
        },
        {
          "internalType": "string",
          "name": "_medicalRecordHash",
          "type": "string"
        }
      ],
      "name": "addRecord",
      "outputs": [],
      "stateMutability": "nonpayable",
      "type": "function"
    },
    {
      "inputs": [
        {
          "internalType": "address",
          "name": "_patient",
          "type": "address"
        }
      ],
      "name": "getRecords",
      "outputs": [
        {
          "components": [
            {
              "internalType": "string",
              "name": "timeStamp",
              "type": "string"
            },
            {
              "internalType": "string",
              "name": "medicalRecordHash",
              "type": "string"
            },
            {
              "internalType": "address",
              "name": "creator",
              "type": "address"
            }
          ],
          "internalType": "struct UploadEhr.PatientRecord[]",
          "name": "",
          "type": "tuple[]"
        }
      ],
      "stateMutability": "view",
      "type": "function",
      "constant": true
    }
  ],
  "bytecode": "0x608060405234801561001057600080fd5b50610bf5806100206000396000f3fe608060405234801561001057600080fd5b50600436106100365760003560e01c8063a0076e841461003b578063d47b41d51461006b575b600080fd5b6100556004803603810190610050919061048f565b610087565b6040516100629190610674565b60405180910390f35b610085600480360381019061008091906107cb565b61029e565b005b60606000808373ffffffffffffffffffffffffffffffffffffffff1673ffffffffffffffffffffffffffffffffffffffff168152602001908152602001600020805480602002602001604051908101604052809291908181526020016000905b82821015610293578382906000526020600020906003020160405180606001604052908160008201805461011a90610885565b80601f016020809104026020016040519081016040528092919081815260200182805461014690610885565b80156101935780601f1061016857610100808354040283529160200191610193565b820191906000526020600020905b81548152906001019060200180831161017657829003601f168201915b505050505081526020016001820180546101ac90610885565b80601f01602080910402602001604051908101604052809291908181526020018280546101d890610885565b80156102255780601f106101fa57610100808354040283529160200191610225565b820191906000526020600020905b81548152906001019060200180831161020857829003601f168201915b505050505081526020016002820160009054906101000a900473ffffffffffffffffffffffffffffffffffffffff1673ffffffffffffffffffffffffffffffffffffffff1673ffffffffffffffffffffffffffffffffffffffff1681525050815260200190600101906100e7565b505050509050919050565b600060405180606001604052808481526020018381526020013373ffffffffffffffffffffffffffffffffffffffff1681525090506000808573ffffffffffffffffffffffffffffffffffffffff1673ffffffffffffffffffffffffffffffffffffffff16815260200190815260200160002081908060018154018082558091505060019003906000526020600020906003020160009091909190915060008201518160000190816103509190610a6c565b5060208201518160010190816103669190610a6c565b5060408201518160020160006101000a81548173ffffffffffffffffffffffffffffffffffffffff021916908373ffffffffffffffffffffffffffffffffffffffff16021790555050503373ffffffffffffffffffffffffffffffffffffffff168473ffffffffffffffffffffffffffffffffffffffff167f2fcca1d89f5968fbcc4c9df0f04b288b096b9f84dccc012abc40e4a5c14184f5858560405161040f929190610b88565b60405180910390a350505050565b6000604051905090565b600080fd5b600080fd5b600073ffffffffffffffffffffffffffffffffffffffff82169050919050565b600061045c82610431565b9050919050565b61046c81610451565b811461047757600080fd5b50565b60008135905061048981610463565b92915050565b6000602082840312156104a5576104a4610427565b5b60006104b38482850161047a565b91505092915050565b600081519050919050565b600082825260208201905092915050565b6000819050602082019050919050565b600081519050919050565b600082825260208201905092915050565b60005b83811015610522578082015181840152602081019050610507565b60008484015250505050565b6000601f19601f8301169050919050565b600061054a826104e8565b61055481856104f3565b9350610564818560208601610504565b61056d8161052e565b840191505092915050565b61058181610451565b82525050565b600060608301600083015184820360008601526105a4828261053f565b915050602083015184820360208601526105be828261053f565b91505060408301516105d36040860182610578565b508091505092915050565b60006105ea8383610587565b905092915050565b6000602082019050919050565b600061060a826104bc565b61061481856104c7565b935083602082028501610626856104d8565b8060005b85811015610662578484038952815161064385826105de565b945061064e836105f2565b925060208a0199505060018101905061062a565b50829750879550505050505092915050565b6000602082019050818103600083015261068e81846105ff565b905092915050565b600080fd5b600080fd5b7f4e487b7100000000000000000000000000000000000000000000000000000000600052604160045260246000fd5b6106d88261052e565b810181811067ffffffffffffffff821117156106f7576106f66106a0565b5b80604052505050565b600061070a61041d565b905061071682826106cf565b919050565b600067ffffffffffffffff821115610736576107356106a0565b5b61073f8261052e565b9050602081019050919050565b82818337600083830152505050565b600061076e6107698461071b565b610700565b90508281526020810184848401111561078a5761078961069b565b5b61079584828561074c565b509392505050565b600082601f8301126107b2576107b1610696565b5b81356107c284826020860161075b565b91505092915050565b6000806000606084860312156107e4576107e3610427565b5b60006107f28682870161047a565b935050602084013567ffffffffffffffff8111156108135761081261042c565b5b61081f8682870161079d565b925050604084013567ffffffffffffffff8111156108405761083f61042c565b5b61084c8682870161079d565b9150509250925092565b7f4e487b7100000000000000000000000000000000000000000000000000000000600052602260045260246000fd5b6000600282049050600182168061089d57607f821691505b6020821081036108b0576108af610856565b5b50919050565b60008190508160005260206000209050919050565b60006020601f8301049050919050565b600082821b905092915050565b6000600883026109187fffffffffffffffffffffffffffffffffffffffffffffffffffffffffffffffff826108db565b61092286836108db565b95508019841693508086168417925050509392505050565b6000819050919050565b6000819050919050565b600061096961096461095f8461093a565b610944565b61093a565b9050919050565b6000819050919050565b6109838361094e565b61099761098f82610970565b8484546108e8565b825550505050565b600090565b6109ac61099f565b6109b781848461097a565b505050565b5b818110156109db576109d06000826109a4565b6001810190506109bd565b5050565b601f821115610a20576109f1816108b6565b6109fa846108cb565b81016020851015610a09578190505b610a1d610a15856108cb565b8301826109bc565b50505b505050565b600082821c905092915050565b6000610a4360001984600802610a25565b1980831691505092915050565b6000610a5c8383610a32565b9150826002028217905092915050565b610a75826104e8565b67ffffffffffffffff811115610a8e57610a8d6106a0565b5b610a988254610885565b610aa38282856109df565b600060209050601f831160018114610ad65760008415610ac4578287015190505b610ace8582610a50565b865550610b36565b601f198416610ae4866108b6565b60005b82811015610b0c57848901518255600182019150602085019450602081019050610ae7565b86831015610b295784890151610b25601f891682610a32565b8355505b6001600288020188555050505b505050505050565b600082825260208201905092915050565b6000610b5a826104e8565b610b648185610b3e565b9350610b74818560208601610504565b610b7d8161052e565b840191505092915050565b60006040820190508181036000830152610ba28185610b4f565b90508181036020830152610bb68184610b4f565b9050939250505056fea2646970667358221220edc2503bc26cd151284b1a07d0a7cb80280f3094a6c771e9312dcc16ece3287664736f6c63430008130033",
  "immutableReferences": {},
  "source": "// SPDX-License-Identifier: MIT\r\npragma solidity ^0.8;\r\n\r\ncontract UploadEhr {\r\n    \r\n    event RecordAdded(address indexed patient, address indexed creator, string timeStamp, string medicalRecordHash);\r\n\r\n    struct PatientRecord {\r\n        string timeStamp;\r\n        string medicalRecordHash;\r\n        address creator; // tracks who created the record\r\n    }\r\n\r\n    mapping(address => PatientRecord[]) private records;\r\n\r\n    function addRecord(address _patient, string memory _timeStamp, string memory _medicalRecordHash) public {\r\n        PatientRecord memory newRecord = PatientRecord(\r\n            _timeStamp,\r\n            _medicalRecordHash,\r\n            msg.sender // the creator who calls this function\r\n        );\r\n        \r\n        records[_patient].push(newRecord);\r\n      //Emit the event right after adding the record:\r\n        emit RecordAdded(_patient, msg.sender, _timeStamp, _medicalRecordHash);  \r\n    }\r\n\r\n    function getRecords(address _patient) public view returns (PatientRecord[] memory) {\r\n        return records[_patient];\r\n    }\r\n}",
  "sourcePath": "D:\\Patients Record Management\\Patients Record Management\\src\\contracts\\UploadEhr.sol",
  "compiler": {
    "name": "solc",
    "version": "0.8.19+commit.7dd6d404.Emscripten.clang"
  },
  "schemaVersion": "3.4.16",
  "updatedAt": "2025-04-15T01:31:26.174Z",
  "networkType": "ethereum",
  "devdoc": {
    "kind": "dev",
    "methods": {},
    "version": 1
  },
  "userdoc": {
    "kind": "user",
    "methods": {},
    "version": 1
  }
}